{
	"ERC20 Contract - 1% Transaction Fee.sol": {
		"ERC20": {
			"abi": [
				{
					"inputs": [],
					"stateMutability": "nonpayable",
					"type": "constructor"
				},
				{
					"anonymous": false,
					"inputs": [
						{
							"indexed": true,
							"internalType": "address",
							"name": "owner",
							"type": "address"
						},
						{
							"indexed": true,
							"internalType": "address",
							"name": "spender",
							"type": "address"
						},
						{
							"indexed": false,
							"internalType": "uint256",
							"name": "value",
							"type": "uint256"
						}
					],
					"name": "Approval",
					"type": "event"
				},
				{
					"anonymous": false,
					"inputs": [
						{
							"indexed": true,
							"internalType": "address",
							"name": "from",
							"type": "address"
						},
						{
							"indexed": true,
							"internalType": "address",
							"name": "to",
							"type": "address"
						},
						{
							"indexed": false,
							"internalType": "uint256",
							"name": "value",
							"type": "uint256"
						}
					],
					"name": "Transfer",
					"type": "event"
				},
				{
					"inputs": [
						{
							"internalType": "address",
							"name": "",
							"type": "address"
						},
						{
							"internalType": "address",
							"name": "",
							"type": "address"
						}
					],
					"name": "allowance",
					"outputs": [
						{
							"internalType": "uint256",
							"name": "",
							"type": "uint256"
						}
					],
					"stateMutability": "view",
					"type": "function"
				},
				{
					"inputs": [
						{
							"internalType": "address",
							"name": "spender",
							"type": "address"
						},
						{
							"internalType": "uint256",
							"name": "value",
							"type": "uint256"
						}
					],
					"name": "approve",
					"outputs": [
						{
							"internalType": "bool",
							"name": "",
							"type": "bool"
						}
					],
					"stateMutability": "nonpayable",
					"type": "function"
				},
				{
					"inputs": [
						{
							"internalType": "address",
							"name": "",
							"type": "address"
						}
					],
					"name": "balanceOf",
					"outputs": [
						{
							"internalType": "uint256",
							"name": "",
							"type": "uint256"
						}
					],
					"stateMutability": "view",
					"type": "function"
				},
				{
					"inputs": [],
					"name": "decimals",
					"outputs": [
						{
							"internalType": "uint8",
							"name": "",
							"type": "uint8"
						}
					],
					"stateMutability": "view",
					"type": "function"
				},
				{
					"inputs": [],
					"name": "feeCollector",
					"outputs": [
						{
							"internalType": "address",
							"name": "",
							"type": "address"
						}
					],
					"stateMutability": "view",
					"type": "function"
				},
				{
					"inputs": [
						{
							"internalType": "address",
							"name": "to",
							"type": "address"
						},
						{
							"internalType": "uint256",
							"name": "amount",
							"type": "uint256"
						}
					],
					"name": "mint",
					"outputs": [],
					"stateMutability": "nonpayable",
					"type": "function"
				},
				{
					"inputs": [],
					"name": "name",
					"outputs": [
						{
							"internalType": "string",
							"name": "",
							"type": "string"
						}
					],
					"stateMutability": "view",
					"type": "function"
				},
				{
					"inputs": [],
					"name": "owner",
					"outputs": [
						{
							"internalType": "address",
							"name": "",
							"type": "address"
						}
					],
					"stateMutability": "view",
					"type": "function"
				},
				{
					"inputs": [],
					"name": "symbol",
					"outputs": [
						{
							"internalType": "string",
							"name": "",
							"type": "string"
						}
					],
					"stateMutability": "view",
					"type": "function"
				},
				{
					"inputs": [],
					"name": "totalSupply",
					"outputs": [
						{
							"internalType": "uint256",
							"name": "",
							"type": "uint256"
						}
					],
					"stateMutability": "view",
					"type": "function"
				},
				{
					"inputs": [
						{
							"internalType": "address",
							"name": "to",
							"type": "address"
						},
						{
							"internalType": "uint256",
							"name": "value",
							"type": "uint256"
						}
					],
					"name": "transfer",
					"outputs": [
						{
							"internalType": "bool",
							"name": "",
							"type": "bool"
						}
					],
					"stateMutability": "nonpayable",
					"type": "function"
				},
				{
					"inputs": [
						{
							"internalType": "address",
							"name": "from",
							"type": "address"
						},
						{
							"internalType": "address",
							"name": "to",
							"type": "address"
						},
						{
							"internalType": "uint256",
							"name": "value",
							"type": "uint256"
						}
					],
					"name": "transferFrom",
					"outputs": [
						{
							"internalType": "bool",
							"name": "",
							"type": "bool"
						}
					],
					"stateMutability": "nonpayable",
					"type": "function"
				}
			],
			"devdoc": {
				"kind": "dev",
				"methods": {},
				"version": 1
			},
			"evm": {
				"assembly": "    /* \"ERC20 Contract - 1% Transaction Fee.sol\":57:3590  contract ERC20 {... */\n  mstore(0x40, 0x80)\n    /* \"ERC20 Contract - 1% Transaction Fee.sol\":876:918  0xA26D8AF9d02Dc35c1BC05bD46528B24b71B83d96 */\n  0xa26d8af9d02dc35c1bc05bd46528b24b71b83d96\n    /* \"ERC20 Contract - 1% Transaction Fee.sol\":846:918  address public feeCollector = 0xA26D8AF9d02Dc35c1BC05bD46528B24b71B83d96 */\n  0x02\n  exp(0x0100, 0x00)\n  dup2\n  sload\n  dup2\n  0xffffffffffffffffffffffffffffffffffffffff\n  mul\n  not\n  and\n  swap1\n  dup4\n  0xffffffffffffffffffffffffffffffffffffffff\n  and\n  mul\n  or\n  swap1\n  sstore\n  pop\n    /* \"ERC20 Contract - 1% Transaction Fee.sol\":1236:1285  constructor() {... */\n  callvalue\n  dup1\n  iszero\n  tag_1\n  jumpi\n  0x00\n  dup1\n  revert\ntag_1:\n  pop\n    /* \"ERC20 Contract - 1% Transaction Fee.sol\":1268:1278  msg.sender */\n  caller\n    /* \"ERC20 Contract - 1% Transaction Fee.sol\":1260:1265  owner */\n  0x01\n  0x00\n    /* \"ERC20 Contract - 1% Transaction Fee.sol\":1260:1278  owner = msg.sender */\n  0x0100\n  exp\n  dup2\n  sload\n  dup2\n  0xffffffffffffffffffffffffffffffffffffffff\n  mul\n  not\n  and\n  swap1\n  dup4\n  0xffffffffffffffffffffffffffffffffffffffff\n  and\n  mul\n  or\n  swap1\n  sstore\n  pop\n    /* \"ERC20 Contract - 1% Transaction Fee.sol\":57:3590  contract ERC20 {... */\n  dataSize(sub_0)\n  dup1\n  dataOffset(sub_0)\n  0x00\n  codecopy\n  0x00\n  return\nstop\n\nsub_0: assembly {\n        /* \"ERC20 Contract - 1% Transaction Fee.sol\":57:3590  contract ERC20 {... */\n      mstore(0x40, 0x80)\n      callvalue\n      dup1\n      iszero\n      tag_1\n      jumpi\n      0x00\n      dup1\n      revert\n    tag_1:\n      pop\n      jumpi(tag_2, lt(calldatasize, 0x04))\n      shr(0xe0, calldataload(0x00))\n      dup1\n      0x70a08231\n      gt\n      tag_15\n      jumpi\n      dup1\n      0x70a08231\n      eq\n      tag_9\n      jumpi\n      dup1\n      0x8da5cb5b\n      eq\n      tag_10\n      jumpi\n      dup1\n      0x95d89b41\n      eq\n      tag_11\n      jumpi\n      dup1\n      0xa9059cbb\n      eq\n      tag_12\n      jumpi\n      dup1\n      0xc415b95c\n      eq\n      tag_13\n      jumpi\n      dup1\n      0xdd62ed3e\n      eq\n      tag_14\n      jumpi\n      jump(tag_2)\n    tag_15:\n      dup1\n      0x06fdde03\n      eq\n      tag_3\n      jumpi\n      dup1\n      0x095ea7b3\n      eq\n      tag_4\n      jumpi\n      dup1\n      0x18160ddd\n      eq\n      tag_5\n      jumpi\n      dup1\n      0x23b872dd\n      eq\n      tag_6\n      jumpi\n      dup1\n      0x313ce567\n      eq\n      tag_7\n      jumpi\n      dup1\n      0x40c10f19\n      eq\n      tag_8\n      jumpi\n    tag_2:\n      0x00\n      dup1\n      revert\n        /* \"ERC20 Contract - 1% Transaction Fee.sol\":397:440  string public constant name = \"MyTokenName\" */\n    tag_3:\n      tag_16\n      tag_17\n      jump\t// in\n    tag_16:\n      mload(0x40)\n      tag_18\n      swap2\n      swap1\n      tag_19\n      jump\t// in\n    tag_18:\n      mload(0x40)\n      dup1\n      swap2\n      sub\n      swap1\n      return\n        /* \"ERC20 Contract - 1% Transaction Fee.sol\":2948:3174  function approve(address spender, uint256 value) external returns (bool) {... */\n    tag_4:\n      tag_20\n      0x04\n      dup1\n      calldatasize\n      sub\n      dup2\n      add\n      swap1\n      tag_21\n      swap2\n      swap1\n      tag_22\n      jump\t// in\n    tag_21:\n      tag_23\n      jump\t// in\n    tag_20:\n      mload(0x40)\n      tag_24\n      swap2\n      swap1\n      tag_25\n      jump\t// in\n    tag_24:\n      mload(0x40)\n      dup1\n      swap2\n      sub\n      swap1\n      return\n        /* \"ERC20 Contract - 1% Transaction Fee.sol\":666:692  uint256 public totalSupply */\n    tag_5:\n      tag_26\n      tag_27\n      jump\t// in\n    tag_26:\n      mload(0x40)\n      tag_28\n      swap2\n      swap1\n      tag_29\n      jump\t// in\n    tag_28:\n      mload(0x40)\n      dup1\n      swap2\n      sub\n      swap1\n      return\n        /* \"ERC20 Contract - 1% Transaction Fee.sol\":1754:2215  function transferFrom(address from, address to, uint256 value) external returns (bool) {... */\n    tag_6:\n      tag_30\n      0x04\n      dup1\n      calldatasize\n      sub\n      dup2\n      add\n      swap1\n      tag_31\n      swap2\n      swap1\n      tag_32\n      jump\t// in\n    tag_31:\n      tag_33\n      jump\t// in\n    tag_30:\n      mload(0x40)\n      tag_34\n      swap2\n      swap1\n      tag_25\n      jump\t// in\n    tag_34:\n      mload(0x40)\n      dup1\n      swap2\n      sub\n      swap1\n      return\n        /* \"ERC20 Contract - 1% Transaction Fee.sol\":527:562  uint8 public constant decimals = 18 */\n    tag_7:\n      tag_35\n      tag_36\n      jump\t// in\n    tag_35:\n      mload(0x40)\n      tag_37\n      swap2\n      swap1\n      tag_38\n      jump\t// in\n    tag_37:\n      mload(0x40)\n      dup1\n      swap2\n      sub\n      swap1\n      return\n        /* \"ERC20 Contract - 1% Transaction Fee.sol\":3265:3588  function mint(address to, uint256 amount) external onlyOwner {... */\n    tag_8:\n      tag_39\n      0x04\n      dup1\n      calldatasize\n      sub\n      dup2\n      add\n      swap1\n      tag_40\n      swap2\n      swap1\n      tag_22\n      jump\t// in\n    tag_40:\n      tag_41\n      jump\t// in\n    tag_39:\n      stop\n        /* \"ERC20 Contract - 1% Transaction Fee.sol\":995:1039  mapping(address => uint256) public balanceOf */\n    tag_9:\n      tag_42\n      0x04\n      dup1\n      calldatasize\n      sub\n      dup2\n      add\n      swap1\n      tag_43\n      swap2\n      swap1\n      tag_44\n      jump\t// in\n    tag_43:\n      tag_45\n      jump\t// in\n    tag_42:\n      mload(0x40)\n      tag_46\n      swap2\n      swap1\n      tag_29\n      jump\t// in\n    tag_46:\n      mload(0x40)\n      dup1\n      swap2\n      sub\n      swap1\n      return\n        /* \"ERC20 Contract - 1% Transaction Fee.sol\":754:774  address public owner */\n    tag_10:\n      tag_47\n      tag_48\n      jump\t// in\n    tag_47:\n      mload(0x40)\n      tag_49\n      swap2\n      swap1\n      tag_50\n      jump\t// in\n    tag_49:\n      mload(0x40)\n      dup1\n      swap2\n      sub\n      swap1\n      return\n        /* \"ERC20 Contract - 1% Transaction Fee.sol\":460:497  string public constant symbol = \"MTN\" */\n    tag_11:\n      tag_51\n      tag_52\n      jump\t// in\n    tag_51:\n      mload(0x40)\n      tag_53\n      swap2\n      swap1\n      tag_19\n      jump\t// in\n    tag_53:\n      mload(0x40)\n      dup1\n      swap2\n      sub\n      swap1\n      return\n        /* \"ERC20 Contract - 1% Transaction Fee.sol\":1531:1656  function transfer(address to, uint256 value) external returns (bool) {... */\n    tag_12:\n      tag_54\n      0x04\n      dup1\n      calldatasize\n      sub\n      dup2\n      add\n      swap1\n      tag_55\n      swap2\n      swap1\n      tag_22\n      jump\t// in\n    tag_55:\n      tag_56\n      jump\t// in\n    tag_54:\n      mload(0x40)\n      tag_57\n      swap2\n      swap1\n      tag_25\n      jump\t// in\n    tag_57:\n      mload(0x40)\n      dup1\n      swap2\n      sub\n      swap1\n      return\n        /* \"ERC20 Contract - 1% Transaction Fee.sol\":846:918  address public feeCollector = 0xA26D8AF9d02Dc35c1BC05bD46528B24b71B83d96 */\n    tag_13:\n      tag_58\n      tag_59\n      jump\t// in\n    tag_58:\n      mload(0x40)\n      tag_60\n      swap2\n      swap1\n      tag_50\n      jump\t// in\n    tag_60:\n      mload(0x40)\n      dup1\n      swap2\n      sub\n      swap1\n      return\n        /* \"ERC20 Contract - 1% Transaction Fee.sol\":1110:1174  mapping(address => mapping(address => uint256)) public allowance */\n    tag_14:\n      tag_61\n      0x04\n      dup1\n      calldatasize\n      sub\n      dup2\n      add\n      swap1\n      tag_62\n      swap2\n      swap1\n      tag_63\n      jump\t// in\n    tag_62:\n      tag_64\n      jump\t// in\n    tag_61:\n      mload(0x40)\n      tag_65\n      swap2\n      swap1\n      tag_29\n      jump\t// in\n    tag_65:\n      mload(0x40)\n      dup1\n      swap2\n      sub\n      swap1\n      return\n        /* \"ERC20 Contract - 1% Transaction Fee.sol\":397:440  string public constant name = \"MyTokenName\" */\n    tag_17:\n      mload(0x40)\n      dup1\n      0x40\n      add\n      0x40\n      mstore\n      dup1\n      0x0b\n      dup2\n      mstore\n      0x20\n      add\n      0x4d79546f6b656e4e616d65000000000000000000000000000000000000000000\n      dup2\n      mstore\n      pop\n      dup2\n      jump\t// out\n        /* \"ERC20 Contract - 1% Transaction Fee.sol\":2948:3174  function approve(address spender, uint256 value) external returns (bool) {... */\n    tag_23:\n        /* \"ERC20 Contract - 1% Transaction Fee.sol\":3015:3019  bool */\n      0x00\n        /* \"ERC20 Contract - 1% Transaction Fee.sol\":3065:3070  value */\n      dup2\n        /* \"ERC20 Contract - 1% Transaction Fee.sol\":3031:3040  allowance */\n      0x04\n        /* \"ERC20 Contract - 1% Transaction Fee.sol\":3031:3052  allowance[msg.sender] */\n      0x00\n        /* \"ERC20 Contract - 1% Transaction Fee.sol\":3041:3051  msg.sender */\n      caller\n        /* \"ERC20 Contract - 1% Transaction Fee.sol\":3031:3052  allowance[msg.sender] */\n      0xffffffffffffffffffffffffffffffffffffffff\n      and\n      0xffffffffffffffffffffffffffffffffffffffff\n      and\n      dup2\n      mstore\n      0x20\n      add\n      swap1\n      dup2\n      mstore\n      0x20\n      add\n      0x00\n      keccak256\n        /* \"ERC20 Contract - 1% Transaction Fee.sol\":3031:3061  allowance[msg.sender][spender] */\n      0x00\n        /* \"ERC20 Contract - 1% Transaction Fee.sol\":3053:3060  spender */\n      dup6\n        /* \"ERC20 Contract - 1% Transaction Fee.sol\":3031:3061  allowance[msg.sender][spender] */\n      0xffffffffffffffffffffffffffffffffffffffff\n      and\n      0xffffffffffffffffffffffffffffffffffffffff\n      and\n      dup2\n      mstore\n      0x20\n      add\n      swap1\n      dup2\n      mstore\n      0x20\n      add\n      0x00\n      keccak256\n      0x00\n        /* \"ERC20 Contract - 1% Transaction Fee.sol\":3031:3070  allowance[msg.sender][spender] += value */\n      dup3\n      dup3\n      sload\n      tag_67\n      swap2\n      swap1\n      tag_68\n      jump\t// in\n    tag_67:\n      swap3\n      pop\n      pop\n      dup2\n      swap1\n      sstore\n      pop\n        /* \"ERC20 Contract - 1% Transaction Fee.sol\":3106:3113  spender */\n      dup3\n        /* \"ERC20 Contract - 1% Transaction Fee.sol\":3085:3146  Approval(msg.sender, spender, allowance[msg.sender][spender]) */\n      0xffffffffffffffffffffffffffffffffffffffff\n      and\n        /* \"ERC20 Contract - 1% Transaction Fee.sol\":3094:3104  msg.sender */\n      caller\n        /* \"ERC20 Contract - 1% Transaction Fee.sol\":3085:3146  Approval(msg.sender, spender, allowance[msg.sender][spender]) */\n      0xffffffffffffffffffffffffffffffffffffffff\n      and\n      0x8c5be1e5ebec7d5bd14f71427d1e84f3dd0314c0f7b2291e5b200ac8c7c3b925\n        /* \"ERC20 Contract - 1% Transaction Fee.sol\":3115:3124  allowance */\n      0x04\n        /* \"ERC20 Contract - 1% Transaction Fee.sol\":3115:3136  allowance[msg.sender] */\n      0x00\n        /* \"ERC20 Contract - 1% Transaction Fee.sol\":3125:3135  msg.sender */\n      caller\n        /* \"ERC20 Contract - 1% Transaction Fee.sol\":3115:3136  allowance[msg.sender] */\n      0xffffffffffffffffffffffffffffffffffffffff\n      and\n      0xffffffffffffffffffffffffffffffffffffffff\n      and\n      dup2\n      mstore\n      0x20\n      add\n      swap1\n      dup2\n      mstore\n      0x20\n      add\n      0x00\n      keccak256\n        /* \"ERC20 Contract - 1% Transaction Fee.sol\":3115:3145  allowance[msg.sender][spender] */\n      0x00\n        /* \"ERC20 Contract - 1% Transaction Fee.sol\":3137:3144  spender */\n      dup8\n        /* \"ERC20 Contract - 1% Transaction Fee.sol\":3115:3145  allowance[msg.sender][spender] */\n      0xffffffffffffffffffffffffffffffffffffffff\n      and\n      0xffffffffffffffffffffffffffffffffffffffff\n      and\n      dup2\n      mstore\n      0x20\n      add\n      swap1\n      dup2\n      mstore\n      0x20\n      add\n      0x00\n      keccak256\n      sload\n        /* \"ERC20 Contract - 1% Transaction Fee.sol\":3085:3146  Approval(msg.sender, spender, allowance[msg.sender][spender]) */\n      mload(0x40)\n      tag_69\n      swap2\n      swap1\n      tag_29\n      jump\t// in\n    tag_69:\n      mload(0x40)\n      dup1\n      swap2\n      sub\n      swap1\n      log3\n        /* \"ERC20 Contract - 1% Transaction Fee.sol\":3163:3167  true */\n      0x01\n        /* \"ERC20 Contract - 1% Transaction Fee.sol\":3156:3167  return true */\n      swap1\n      pop\n        /* \"ERC20 Contract - 1% Transaction Fee.sol\":2948:3174  function approve(address spender, uint256 value) external returns (bool) {... */\n      swap3\n      swap2\n      pop\n      pop\n      jump\t// out\n        /* \"ERC20 Contract - 1% Transaction Fee.sol\":666:692  uint256 public totalSupply */\n    tag_27:\n      sload(0x00)\n      dup2\n      jump\t// out\n        /* \"ERC20 Contract - 1% Transaction Fee.sol\":1754:2215  function transferFrom(address from, address to, uint256 value) external returns (bool) {... */\n    tag_33:\n        /* \"ERC20 Contract - 1% Transaction Fee.sol\":1835:1839  bool */\n      0x00\n        /* \"ERC20 Contract - 1% Transaction Fee.sol\":1890:1895  value */\n      dup2\n        /* \"ERC20 Contract - 1% Transaction Fee.sol\":1859:1868  allowance */\n      0x04\n        /* \"ERC20 Contract - 1% Transaction Fee.sol\":1859:1874  allowance[from] */\n      0x00\n        /* \"ERC20 Contract - 1% Transaction Fee.sol\":1869:1873  from */\n      dup7\n        /* \"ERC20 Contract - 1% Transaction Fee.sol\":1859:1874  allowance[from] */\n      0xffffffffffffffffffffffffffffffffffffffff\n      and\n      0xffffffffffffffffffffffffffffffffffffffff\n      and\n      dup2\n      mstore\n      0x20\n      add\n      swap1\n      dup2\n      mstore\n      0x20\n      add\n      0x00\n      keccak256\n        /* \"ERC20 Contract - 1% Transaction Fee.sol\":1859:1886  allowance[from][msg.sender] */\n      0x00\n        /* \"ERC20 Contract - 1% Transaction Fee.sol\":1875:1885  msg.sender */\n      caller\n        /* \"ERC20 Contract - 1% Transaction Fee.sol\":1859:1886  allowance[from][msg.sender] */\n      0xffffffffffffffffffffffffffffffffffffffff\n      and\n      0xffffffffffffffffffffffffffffffffffffffff\n      and\n      dup2\n      mstore\n      0x20\n      add\n      swap1\n      dup2\n      mstore\n      0x20\n      add\n      0x00\n      keccak256\n      sload\n        /* \"ERC20 Contract - 1% Transaction Fee.sol\":1859:1895  allowance[from][msg.sender] >= value */\n      lt\n      iszero\n        /* \"ERC20 Contract - 1% Transaction Fee.sol\":1851:1929  require(allowance[from][msg.sender] >= value, \"ERC20: Insufficient Allowance\") */\n      tag_71\n      jumpi\n      mload(0x40)\n      0x08c379a000000000000000000000000000000000000000000000000000000000\n      dup2\n      mstore\n      0x04\n      add\n      tag_72\n      swap1\n      tag_73\n      jump\t// in\n    tag_72:\n      mload(0x40)\n      dup1\n      swap2\n      sub\n      swap1\n      revert\n    tag_71:\n        /* \"ERC20 Contract - 1% Transaction Fee.sol\":2039:2044  value */\n      dup2\n        /* \"ERC20 Contract - 1% Transaction Fee.sol\":2008:2017  allowance */\n      0x04\n        /* \"ERC20 Contract - 1% Transaction Fee.sol\":2008:2023  allowance[from] */\n      0x00\n        /* \"ERC20 Contract - 1% Transaction Fee.sol\":2018:2022  from */\n      dup7\n        /* \"ERC20 Contract - 1% Transaction Fee.sol\":2008:2023  allowance[from] */\n      0xffffffffffffffffffffffffffffffffffffffff\n      and\n      0xffffffffffffffffffffffffffffffffffffffff\n      and\n      dup2\n      mstore\n      0x20\n      add\n      swap1\n      dup2\n      mstore\n      0x20\n      add\n      0x00\n      keccak256\n        /* \"ERC20 Contract - 1% Transaction Fee.sol\":2008:2035  allowance[from][msg.sender] */\n      0x00\n        /* \"ERC20 Contract - 1% Transaction Fee.sol\":2024:2034  msg.sender */\n      caller\n        /* \"ERC20 Contract - 1% Transaction Fee.sol\":2008:2035  allowance[from][msg.sender] */\n      0xffffffffffffffffffffffffffffffffffffffff\n      and\n      0xffffffffffffffffffffffffffffffffffffffff\n      and\n      dup2\n      mstore\n      0x20\n      add\n      swap1\n      dup2\n      mstore\n      0x20\n      add\n      0x00\n      keccak256\n      0x00\n        /* \"ERC20 Contract - 1% Transaction Fee.sol\":2008:2044  allowance[from][msg.sender] -= value */\n      dup3\n      dup3\n      sload\n      tag_74\n      swap2\n      swap1\n      tag_75\n      jump\t// in\n    tag_74:\n      swap3\n      pop\n      pop\n      dup2\n      swap1\n      sstore\n      pop\n        /* \"ERC20 Contract - 1% Transaction Fee.sol\":2116:2126  msg.sender */\n      caller\n        /* \"ERC20 Contract - 1% Transaction Fee.sol\":2101:2156  Approval(from, msg.sender, allowance[from][msg.sender]) */\n      0xffffffffffffffffffffffffffffffffffffffff\n      and\n        /* \"ERC20 Contract - 1% Transaction Fee.sol\":2110:2114  from */\n      dup5\n        /* \"ERC20 Contract - 1% Transaction Fee.sol\":2101:2156  Approval(from, msg.sender, allowance[from][msg.sender]) */\n      0xffffffffffffffffffffffffffffffffffffffff\n      and\n      0x8c5be1e5ebec7d5bd14f71427d1e84f3dd0314c0f7b2291e5b200ac8c7c3b925\n        /* \"ERC20 Contract - 1% Transaction Fee.sol\":2128:2137  allowance */\n      0x04\n        /* \"ERC20 Contract - 1% Transaction Fee.sol\":2128:2143  allowance[from] */\n      0x00\n        /* \"ERC20 Contract - 1% Transaction Fee.sol\":2138:2142  from */\n      dup9\n        /* \"ERC20 Contract - 1% Transaction Fee.sol\":2128:2143  allowance[from] */\n      0xffffffffffffffffffffffffffffffffffffffff\n      and\n      0xffffffffffffffffffffffffffffffffffffffff\n      and\n      dup2\n      mstore\n      0x20\n      add\n      swap1\n      dup2\n      mstore\n      0x20\n      add\n      0x00\n      keccak256\n        /* \"ERC20 Contract - 1% Transaction Fee.sol\":2128:2155  allowance[from][msg.sender] */\n      0x00\n        /* \"ERC20 Contract - 1% Transaction Fee.sol\":2144:2154  msg.sender */\n      caller\n        /* \"ERC20 Contract - 1% Transaction Fee.sol\":2128:2155  allowance[from][msg.sender] */\n      0xffffffffffffffffffffffffffffffffffffffff\n      and\n      0xffffffffffffffffffffffffffffffffffffffff\n      and\n      dup2\n      mstore\n      0x20\n      add\n      swap1\n      dup2\n      mstore\n      0x20\n      add\n      0x00\n      keccak256\n      sload\n        /* \"ERC20 Contract - 1% Transaction Fee.sol\":2101:2156  Approval(from, msg.sender, allowance[from][msg.sender]) */\n      mload(0x40)\n      tag_76\n      swap2\n      swap1\n      tag_29\n      jump\t// in\n    tag_76:\n      mload(0x40)\n      dup1\n      swap2\n      sub\n      swap1\n      log3\n        /* \"ERC20 Contract - 1% Transaction Fee.sol\":2182:2208  _transfer(from, to, value) */\n      tag_77\n        /* \"ERC20 Contract - 1% Transaction Fee.sol\":2192:2196  from */\n      dup5\n        /* \"ERC20 Contract - 1% Transaction Fee.sol\":2198:2200  to */\n      dup5\n        /* \"ERC20 Contract - 1% Transaction Fee.sol\":2202:2207  value */\n      dup5\n        /* \"ERC20 Contract - 1% Transaction Fee.sol\":2182:2191  _transfer */\n      tag_78\n        /* \"ERC20 Contract - 1% Transaction Fee.sol\":2182:2208  _transfer(from, to, value) */\n      jump\t// in\n    tag_77:\n        /* \"ERC20 Contract - 1% Transaction Fee.sol\":2175:2208  return _transfer(from, to, value) */\n      swap1\n      pop\n        /* \"ERC20 Contract - 1% Transaction Fee.sol\":1754:2215  function transferFrom(address from, address to, uint256 value) external returns (bool) {... */\n      swap4\n      swap3\n      pop\n      pop\n      pop\n      jump\t// out\n        /* \"ERC20 Contract - 1% Transaction Fee.sol\":527:562  uint8 public constant decimals = 18 */\n    tag_36:\n        /* \"ERC20 Contract - 1% Transaction Fee.sol\":560:562  18 */\n      0x12\n        /* \"ERC20 Contract - 1% Transaction Fee.sol\":527:562  uint8 public constant decimals = 18 */\n      dup2\n      jump\t// out\n        /* \"ERC20 Contract - 1% Transaction Fee.sol\":3265:3588  function mint(address to, uint256 amount) external onlyOwner {... */\n    tag_41:\n        /* \"ERC20 Contract - 1% Transaction Fee.sol\":1409:1414  owner */\n      0x01\n      0x00\n      swap1\n      sload\n      swap1\n      0x0100\n      exp\n      swap1\n      div\n      0xffffffffffffffffffffffffffffffffffffffff\n      and\n        /* \"ERC20 Contract - 1% Transaction Fee.sol\":1395:1414  msg.sender == owner */\n      0xffffffffffffffffffffffffffffffffffffffff\n      and\n        /* \"ERC20 Contract - 1% Transaction Fee.sol\":1395:1405  msg.sender */\n      caller\n        /* \"ERC20 Contract - 1% Transaction Fee.sol\":1395:1414  msg.sender == owner */\n      0xffffffffffffffffffffffffffffffffffffffff\n      and\n      eq\n        /* \"ERC20 Contract - 1% Transaction Fee.sol\":1387:1432  require(msg.sender == owner, \"Not the owner\") */\n      tag_80\n      jumpi\n      mload(0x40)\n      0x08c379a000000000000000000000000000000000000000000000000000000000\n      dup2\n      mstore\n      0x04\n      add\n      tag_81\n      swap1\n      tag_82\n      jump\t// in\n    tag_81:\n      mload(0x40)\n      dup1\n      swap2\n      sub\n      swap1\n      revert\n    tag_80:\n        /* \"ERC20 Contract - 1% Transaction Fee.sol\":3353:3359  amount */\n      dup1\n        /* \"ERC20 Contract - 1% Transaction Fee.sol\":3336:3345  balanceOf */\n      0x03\n        /* \"ERC20 Contract - 1% Transaction Fee.sol\":3336:3349  balanceOf[to] */\n      0x00\n        /* \"ERC20 Contract - 1% Transaction Fee.sol\":3346:3348  to */\n      dup5\n        /* \"ERC20 Contract - 1% Transaction Fee.sol\":3336:3349  balanceOf[to] */\n      0xffffffffffffffffffffffffffffffffffffffff\n      and\n      0xffffffffffffffffffffffffffffffffffffffff\n      and\n      dup2\n      mstore\n      0x20\n      add\n      swap1\n      dup2\n      mstore\n      0x20\n      add\n      0x00\n      keccak256\n      0x00\n        /* \"ERC20 Contract - 1% Transaction Fee.sol\":3336:3359  balanceOf[to] += amount */\n      dup3\n      dup3\n      sload\n      tag_84\n      swap2\n      swap1\n      tag_68\n      jump\t// in\n    tag_84:\n      swap3\n      pop\n      pop\n      dup2\n      swap1\n      sstore\n      pop\n        /* \"ERC20 Contract - 1% Transaction Fee.sol\":3414:3420  amount */\n      dup1\n        /* \"ERC20 Contract - 1% Transaction Fee.sol\":3399:3410  totalSupply */\n      0x00\n      dup1\n        /* \"ERC20 Contract - 1% Transaction Fee.sol\":3399:3420  totalSupply += amount */\n      dup3\n      dup3\n      sload\n      tag_85\n      swap2\n      swap1\n      tag_68\n      jump\t// in\n    tag_85:\n      swap3\n      pop\n      pop\n      dup2\n      swap1\n      sstore\n      pop\n        /* \"ERC20 Contract - 1% Transaction Fee.sol\":3487:3489  to */\n      dup2\n        /* \"ERC20 Contract - 1% Transaction Fee.sol\":3466:3498  Transfer(address(0), to, amount) */\n      0xffffffffffffffffffffffffffffffffffffffff\n      and\n        /* \"ERC20 Contract - 1% Transaction Fee.sol\":3483:3484  0 */\n      0x00\n        /* \"ERC20 Contract - 1% Transaction Fee.sol\":3466:3498  Transfer(address(0), to, amount) */\n      0xffffffffffffffffffffffffffffffffffffffff\n      and\n      0xddf252ad1be2c89b69c2b068fc378daa952ba7f163c4a11628f55a4df523b3ef\n        /* \"ERC20 Contract - 1% Transaction Fee.sol\":3491:3497  amount */\n      dup4\n        /* \"ERC20 Contract - 1% Transaction Fee.sol\":3466:3498  Transfer(address(0), to, amount) */\n      mload(0x40)\n      tag_86\n      swap2\n      swap1\n      tag_29\n      jump\t// in\n    tag_86:\n      mload(0x40)\n      dup1\n      swap2\n      sub\n      swap1\n      log3\n        /* \"ERC20 Contract - 1% Transaction Fee.sol\":3265:3588  function mint(address to, uint256 amount) external onlyOwner {... */\n      pop\n      pop\n      jump\t// out\n        /* \"ERC20 Contract - 1% Transaction Fee.sol\":995:1039  mapping(address => uint256) public balanceOf */\n    tag_45:\n      mstore(0x20, 0x03)\n      dup1\n      0x00\n      mstore\n      keccak256(0x00, 0x40)\n      0x00\n      swap2\n      pop\n      swap1\n      pop\n      sload\n      dup2\n      jump\t// out\n        /* \"ERC20 Contract - 1% Transaction Fee.sol\":754:774  address public owner */\n    tag_48:\n      0x01\n      0x00\n      swap1\n      sload\n      swap1\n      0x0100\n      exp\n      swap1\n      div\n      0xffffffffffffffffffffffffffffffffffffffff\n      and\n      dup2\n      jump\t// out\n        /* \"ERC20 Contract - 1% Transaction Fee.sol\":460:497  string public constant symbol = \"MTN\" */\n    tag_52:\n      mload(0x40)\n      dup1\n      0x40\n      add\n      0x40\n      mstore\n      dup1\n      0x03\n      dup2\n      mstore\n      0x20\n      add\n      0x4d544e0000000000000000000000000000000000000000000000000000000000\n      dup2\n      mstore\n      pop\n      dup2\n      jump\t// out\n        /* \"ERC20 Contract - 1% Transaction Fee.sol\":1531:1656  function transfer(address to, uint256 value) external returns (bool) {... */\n    tag_56:\n        /* \"ERC20 Contract - 1% Transaction Fee.sol\":1594:1598  bool */\n      0x00\n        /* \"ERC20 Contract - 1% Transaction Fee.sol\":1617:1649  _transfer(msg.sender, to, value) */\n      tag_88\n        /* \"ERC20 Contract - 1% Transaction Fee.sol\":1627:1637  msg.sender */\n      caller\n        /* \"ERC20 Contract - 1% Transaction Fee.sol\":1639:1641  to */\n      dup5\n        /* \"ERC20 Contract - 1% Transaction Fee.sol\":1643:1648  value */\n      dup5\n        /* \"ERC20 Contract - 1% Transaction Fee.sol\":1617:1626  _transfer */\n      tag_78\n        /* \"ERC20 Contract - 1% Transaction Fee.sol\":1617:1649  _transfer(msg.sender, to, value) */\n      jump\t// in\n    tag_88:\n        /* \"ERC20 Contract - 1% Transaction Fee.sol\":1610:1649  return _transfer(msg.sender, to, value) */\n      swap1\n      pop\n        /* \"ERC20 Contract - 1% Transaction Fee.sol\":1531:1656  function transfer(address to, uint256 value) external returns (bool) {... */\n      swap3\n      swap2\n      pop\n      pop\n      jump\t// out\n        /* \"ERC20 Contract - 1% Transaction Fee.sol\":846:918  address public feeCollector = 0xA26D8AF9d02Dc35c1BC05bD46528B24b71B83d96 */\n    tag_59:\n      0x02\n      0x00\n      swap1\n      sload\n      swap1\n      0x0100\n      exp\n      swap1\n      div\n      0xffffffffffffffffffffffffffffffffffffffff\n      and\n      dup2\n      jump\t// out\n        /* \"ERC20 Contract - 1% Transaction Fee.sol\":1110:1174  mapping(address => mapping(address => uint256)) public allowance */\n    tag_64:\n      mstore(0x20, 0x04)\n      dup2\n      0x00\n      mstore\n      mstore(0x20, keccak256(0x00, 0x40))\n      dup1\n      0x00\n      mstore\n      keccak256(0x00, 0x40)\n      0x00\n      swap2\n      pop\n      swap2\n      pop\n      pop\n      sload\n      dup2\n      jump\t// out\n        /* \"ERC20 Contract - 1% Transaction Fee.sol\":2302:2870  function _transfer(address from, address to, uint256 value) private returns (bool) {... */\n    tag_78:\n        /* \"ERC20 Contract - 1% Transaction Fee.sol\":2379:2383  bool */\n      0x00\n        /* \"ERC20 Contract - 1% Transaction Fee.sol\":2422:2427  value */\n      dup2\n        /* \"ERC20 Contract - 1% Transaction Fee.sol\":2403:2412  balanceOf */\n      0x03\n        /* \"ERC20 Contract - 1% Transaction Fee.sol\":2403:2418  balanceOf[from] */\n      0x00\n        /* \"ERC20 Contract - 1% Transaction Fee.sol\":2413:2417  from */\n      dup7\n        /* \"ERC20 Contract - 1% Transaction Fee.sol\":2403:2418  balanceOf[from] */\n      0xffffffffffffffffffffffffffffffffffffffff\n      and\n      0xffffffffffffffffffffffffffffffffffffffff\n      and\n      dup2\n      mstore\n      0x20\n      add\n      swap1\n      dup2\n      mstore\n      0x20\n      add\n      0x00\n      keccak256\n      sload\n        /* \"ERC20 Contract - 1% Transaction Fee.sol\":2403:2427  balanceOf[from] >= value */\n      lt\n      iszero\n        /* \"ERC20 Contract - 1% Transaction Fee.sol\":2395:2466  require(balanceOf[from] >= value, \"ERC20: Insufficient sender balance\") */\n      tag_90\n      jumpi\n      mload(0x40)\n      0x08c379a000000000000000000000000000000000000000000000000000000000\n      dup2\n      mstore\n      0x04\n      add\n      tag_91\n      swap1\n      tag_92\n      jump\t// in\n    tag_91:\n      mload(0x40)\n      dup1\n      swap2\n      sub\n      swap1\n      revert\n    tag_90:\n        /* \"ERC20 Contract - 1% Transaction Fee.sol\":2477:2488  uint256 fee */\n      0x00\n        /* \"ERC20 Contract - 1% Transaction Fee.sol\":2499:2502  100 */\n      0x64\n        /* \"ERC20 Contract - 1% Transaction Fee.sol\":2491:2496  value */\n      dup4\n        /* \"ERC20 Contract - 1% Transaction Fee.sol\":2491:2502  value / 100 */\n      tag_93\n      swap2\n      swap1\n      tag_94\n      jump\t// in\n    tag_93:\n        /* \"ERC20 Contract - 1% Transaction Fee.sol\":2477:2502  uint256 fee = value / 100 */\n      swap1\n      pop\n        /* \"ERC20 Contract - 1% Transaction Fee.sol\":2532:2554  uint256 amountAfterFee */\n      0x00\n        /* \"ERC20 Contract - 1% Transaction Fee.sol\":2565:2568  fee */\n      dup2\n        /* \"ERC20 Contract - 1% Transaction Fee.sol\":2557:2562  value */\n      dup5\n        /* \"ERC20 Contract - 1% Transaction Fee.sol\":2557:2568  value - fee */\n      tag_95\n      swap2\n      swap1\n      tag_75\n      jump\t// in\n    tag_95:\n        /* \"ERC20 Contract - 1% Transaction Fee.sol\":2532:2568  uint256 amountAfterFee = value - fee */\n      swap1\n      pop\n        /* \"ERC20 Contract - 1% Transaction Fee.sol\":2629:2634  value */\n      dup4\n        /* \"ERC20 Contract - 1% Transaction Fee.sol\":2610:2619  balanceOf */\n      0x03\n        /* \"ERC20 Contract - 1% Transaction Fee.sol\":2610:2625  balanceOf[from] */\n      0x00\n        /* \"ERC20 Contract - 1% Transaction Fee.sol\":2620:2624  from */\n      dup9\n        /* \"ERC20 Contract - 1% Transaction Fee.sol\":2610:2625  balanceOf[from] */\n      0xffffffffffffffffffffffffffffffffffffffff\n      and\n      0xffffffffffffffffffffffffffffffffffffffff\n      and\n      dup2\n      mstore\n      0x20\n      add\n      swap1\n      dup2\n      mstore\n      0x20\n      add\n      0x00\n      keccak256\n      0x00\n        /* \"ERC20 Contract - 1% Transaction Fee.sol\":2610:2634  balanceOf[from] -= value */\n      dup3\n      dup3\n      sload\n      tag_96\n      swap2\n      swap1\n      tag_75\n      jump\t// in\n    tag_96:\n      swap3\n      pop\n      pop\n      dup2\n      swap1\n      sstore\n      pop\n        /* \"ERC20 Contract - 1% Transaction Fee.sol\":2661:2675  amountAfterFee */\n      dup1\n        /* \"ERC20 Contract - 1% Transaction Fee.sol\":2644:2653  balanceOf */\n      0x03\n        /* \"ERC20 Contract - 1% Transaction Fee.sol\":2644:2657  balanceOf[to] */\n      0x00\n        /* \"ERC20 Contract - 1% Transaction Fee.sol\":2654:2656  to */\n      dup8\n        /* \"ERC20 Contract - 1% Transaction Fee.sol\":2644:2657  balanceOf[to] */\n      0xffffffffffffffffffffffffffffffffffffffff\n      and\n      0xffffffffffffffffffffffffffffffffffffffff\n      and\n      dup2\n      mstore\n      0x20\n      add\n      swap1\n      dup2\n      mstore\n      0x20\n      add\n      0x00\n      keccak256\n      0x00\n        /* \"ERC20 Contract - 1% Transaction Fee.sol\":2644:2675  balanceOf[to] += amountAfterFee */\n      dup3\n      dup3\n      sload\n      tag_97\n      swap2\n      swap1\n      tag_68\n      jump\t// in\n    tag_97:\n      swap3\n      pop\n      pop\n      dup2\n      swap1\n      sstore\n      pop\n        /* \"ERC20 Contract - 1% Transaction Fee.sol\":2712:2715  fee */\n      dup2\n        /* \"ERC20 Contract - 1% Transaction Fee.sol\":2685:2694  balanceOf */\n      0x03\n        /* \"ERC20 Contract - 1% Transaction Fee.sol\":2685:2708  balanceOf[feeCollector] */\n      0x00\n        /* \"ERC20 Contract - 1% Transaction Fee.sol\":2695:2707  feeCollector */\n      0x02\n      0x00\n      swap1\n      sload\n      swap1\n      0x0100\n      exp\n      swap1\n      div\n      0xffffffffffffffffffffffffffffffffffffffff\n      and\n        /* \"ERC20 Contract - 1% Transaction Fee.sol\":2685:2708  balanceOf[feeCollector] */\n      0xffffffffffffffffffffffffffffffffffffffff\n      and\n      0xffffffffffffffffffffffffffffffffffffffff\n      and\n      dup2\n      mstore\n      0x20\n      add\n      swap1\n      dup2\n      mstore\n      0x20\n      add\n      0x00\n      keccak256\n      0x00\n        /* \"ERC20 Contract - 1% Transaction Fee.sol\":2685:2715  balanceOf[feeCollector] += fee */\n      dup3\n      dup3\n      sload\n      tag_98\n      swap2\n      swap1\n      tag_68\n      jump\t// in\n    tag_98:\n      swap3\n      pop\n      pop\n      dup2\n      swap1\n      sstore\n      pop\n        /* \"ERC20 Contract - 1% Transaction Fee.sol\":2774:2776  to */\n      dup5\n        /* \"ERC20 Contract - 1% Transaction Fee.sol\":2759:2793  Transfer(from, to, amountAfterFee) */\n      0xffffffffffffffffffffffffffffffffffffffff\n      and\n        /* \"ERC20 Contract - 1% Transaction Fee.sol\":2768:2772  from */\n      dup7\n        /* \"ERC20 Contract - 1% Transaction Fee.sol\":2759:2793  Transfer(from, to, amountAfterFee) */\n      0xffffffffffffffffffffffffffffffffffffffff\n      and\n      0xddf252ad1be2c89b69c2b068fc378daa952ba7f163c4a11628f55a4df523b3ef\n        /* \"ERC20 Contract - 1% Transaction Fee.sol\":2778:2792  amountAfterFee */\n      dup4\n        /* \"ERC20 Contract - 1% Transaction Fee.sol\":2759:2793  Transfer(from, to, amountAfterFee) */\n      mload(0x40)\n      tag_99\n      swap2\n      swap1\n      tag_29\n      jump\t// in\n    tag_99:\n      mload(0x40)\n      dup1\n      swap2\n      sub\n      swap1\n      log3\n        /* \"ERC20 Contract - 1% Transaction Fee.sol\":2823:2835  feeCollector */\n      0x02\n      0x00\n      swap1\n      sload\n      swap1\n      0x0100\n      exp\n      swap1\n      div\n      0xffffffffffffffffffffffffffffffffffffffff\n      and\n        /* \"ERC20 Contract - 1% Transaction Fee.sol\":2808:2841  Transfer(from, feeCollector, fee) */\n      0xffffffffffffffffffffffffffffffffffffffff\n      and\n        /* \"ERC20 Contract - 1% Transaction Fee.sol\":2817:2821  from */\n      dup7\n        /* \"ERC20 Contract - 1% Transaction Fee.sol\":2808:2841  Transfer(from, feeCollector, fee) */\n      0xffffffffffffffffffffffffffffffffffffffff\n      and\n      0xddf252ad1be2c89b69c2b068fc378daa952ba7f163c4a11628f55a4df523b3ef\n        /* \"ERC20 Contract - 1% Transaction Fee.sol\":2837:2840  fee */\n      dup5\n        /* \"ERC20 Contract - 1% Transaction Fee.sol\":2808:2841  Transfer(from, feeCollector, fee) */\n      mload(0x40)\n      tag_100\n      swap2\n      swap1\n      tag_29\n      jump\t// in\n    tag_100:\n      mload(0x40)\n      dup1\n      swap2\n      sub\n      swap1\n      log3\n        /* \"ERC20 Contract - 1% Transaction Fee.sol\":2859:2863  true */\n      0x01\n        /* \"ERC20 Contract - 1% Transaction Fee.sol\":2852:2863  return true */\n      swap3\n      pop\n      pop\n      pop\n        /* \"ERC20 Contract - 1% Transaction Fee.sol\":2302:2870  function _transfer(address from, address to, uint256 value) private returns (bool) {... */\n      swap4\n      swap3\n      pop\n      pop\n      pop\n      jump\t// out\n        /* \"#utility.yul\":7:106   */\n    tag_101:\n        /* \"#utility.yul\":59:65   */\n      0x00\n        /* \"#utility.yul\":93:98   */\n      dup2\n        /* \"#utility.yul\":87:99   */\n      mload\n        /* \"#utility.yul\":77:99   */\n      swap1\n      pop\n        /* \"#utility.yul\":7:106   */\n      swap2\n      swap1\n      pop\n      jump\t// out\n        /* \"#utility.yul\":112:281   */\n    tag_102:\n        /* \"#utility.yul\":196:207   */\n      0x00\n        /* \"#utility.yul\":230:236   */\n      dup3\n        /* \"#utility.yul\":225:228   */\n      dup3\n        /* \"#utility.yul\":218:237   */\n      mstore\n        /* \"#utility.yul\":270:274   */\n      0x20\n        /* \"#utility.yul\":265:268   */\n      dup3\n        /* \"#utility.yul\":261:275   */\n      add\n        /* \"#utility.yul\":246:275   */\n      swap1\n      pop\n        /* \"#utility.yul\":112:281   */\n      swap3\n      swap2\n      pop\n      pop\n      jump\t// out\n        /* \"#utility.yul\":287:426   */\n    tag_103:\n        /* \"#utility.yul\":376:382   */\n      dup3\n        /* \"#utility.yul\":371:374   */\n      dup2\n        /* \"#utility.yul\":366:369   */\n      dup4\n        /* \"#utility.yul\":360:383   */\n      mcopy\n        /* \"#utility.yul\":417:418   */\n      0x00\n        /* \"#utility.yul\":408:414   */\n      dup4\n        /* \"#utility.yul\":403:406   */\n      dup4\n        /* \"#utility.yul\":399:415   */\n      add\n        /* \"#utility.yul\":392:419   */\n      mstore\n        /* \"#utility.yul\":287:426   */\n      pop\n      pop\n      pop\n      jump\t// out\n        /* \"#utility.yul\":432:534   */\n    tag_104:\n        /* \"#utility.yul\":473:479   */\n      0x00\n        /* \"#utility.yul\":524:526   */\n      0x1f\n        /* \"#utility.yul\":520:527   */\n      not\n        /* \"#utility.yul\":515:517   */\n      0x1f\n        /* \"#utility.yul\":508:513   */\n      dup4\n        /* \"#utility.yul\":504:518   */\n      add\n        /* \"#utility.yul\":500:528   */\n      and\n        /* \"#utility.yul\":490:528   */\n      swap1\n      pop\n        /* \"#utility.yul\":432:534   */\n      swap2\n      swap1\n      pop\n      jump\t// out\n        /* \"#utility.yul\":540:917   */\n    tag_105:\n        /* \"#utility.yul\":628:631   */\n      0x00\n        /* \"#utility.yul\":656:695   */\n      tag_136\n        /* \"#utility.yul\":689:694   */\n      dup3\n        /* \"#utility.yul\":656:695   */\n      tag_101\n      jump\t// in\n    tag_136:\n        /* \"#utility.yul\":711:782   */\n      tag_137\n        /* \"#utility.yul\":775:781   */\n      dup2\n        /* \"#utility.yul\":770:773   */\n      dup6\n        /* \"#utility.yul\":711:782   */\n      tag_102\n      jump\t// in\n    tag_137:\n        /* \"#utility.yul\":704:782   */\n      swap4\n      pop\n        /* \"#utility.yul\":791:856   */\n      tag_138\n        /* \"#utility.yul\":849:855   */\n      dup2\n        /* \"#utility.yul\":844:847   */\n      dup6\n        /* \"#utility.yul\":837:841   */\n      0x20\n        /* \"#utility.yul\":830:835   */\n      dup7\n        /* \"#utility.yul\":826:842   */\n      add\n        /* \"#utility.yul\":791:856   */\n      tag_103\n      jump\t// in\n    tag_138:\n        /* \"#utility.yul\":881:910   */\n      tag_139\n        /* \"#utility.yul\":903:909   */\n      dup2\n        /* \"#utility.yul\":881:910   */\n      tag_104\n      jump\t// in\n    tag_139:\n        /* \"#utility.yul\":876:879   */\n      dup5\n        /* \"#utility.yul\":872:911   */\n      add\n        /* \"#utility.yul\":865:911   */\n      swap2\n      pop\n        /* \"#utility.yul\":632:917   */\n      pop\n        /* \"#utility.yul\":540:917   */\n      swap3\n      swap2\n      pop\n      pop\n      jump\t// out\n        /* \"#utility.yul\":923:1236   */\n    tag_19:\n        /* \"#utility.yul\":1036:1040   */\n      0x00\n        /* \"#utility.yul\":1074:1076   */\n      0x20\n        /* \"#utility.yul\":1063:1072   */\n      dup3\n        /* \"#utility.yul\":1059:1077   */\n      add\n        /* \"#utility.yul\":1051:1077   */\n      swap1\n      pop\n        /* \"#utility.yul\":1123:1132   */\n      dup2\n        /* \"#utility.yul\":1117:1121   */\n      dup2\n        /* \"#utility.yul\":1113:1133   */\n      sub\n        /* \"#utility.yul\":1109:1110   */\n      0x00\n        /* \"#utility.yul\":1098:1107   */\n      dup4\n        /* \"#utility.yul\":1094:1111   */\n      add\n        /* \"#utility.yul\":1087:1134   */\n      mstore\n        /* \"#utility.yul\":1151:1229   */\n      tag_141\n        /* \"#utility.yul\":1224:1228   */\n      dup2\n        /* \"#utility.yul\":1215:1221   */\n      dup5\n        /* \"#utility.yul\":1151:1229   */\n      tag_105\n      jump\t// in\n    tag_141:\n        /* \"#utility.yul\":1143:1229   */\n      swap1\n      pop\n        /* \"#utility.yul\":923:1236   */\n      swap3\n      swap2\n      pop\n      pop\n      jump\t// out\n        /* \"#utility.yul\":1323:1440   */\n    tag_107:\n        /* \"#utility.yul\":1432:1433   */\n      0x00\n        /* \"#utility.yul\":1429:1430   */\n      dup1\n        /* \"#utility.yul\":1422:1434   */\n      revert\n        /* \"#utility.yul\":1569:1695   */\n    tag_109:\n        /* \"#utility.yul\":1606:1613   */\n      0x00\n        /* \"#utility.yul\":1646:1688   */\n      0xffffffffffffffffffffffffffffffffffffffff\n        /* \"#utility.yul\":1639:1644   */\n      dup3\n        /* \"#utility.yul\":1635:1689   */\n      and\n        /* \"#utility.yul\":1624:1689   */\n      swap1\n      pop\n        /* \"#utility.yul\":1569:1695   */\n      swap2\n      swap1\n      pop\n      jump\t// out\n        /* \"#utility.yul\":1701:1797   */\n    tag_110:\n        /* \"#utility.yul\":1738:1745   */\n      0x00\n        /* \"#utility.yul\":1767:1791   */\n      tag_147\n        /* \"#utility.yul\":1785:1790   */\n      dup3\n        /* \"#utility.yul\":1767:1791   */\n      tag_109\n      jump\t// in\n    tag_147:\n        /* \"#utility.yul\":1756:1791   */\n      swap1\n      pop\n        /* \"#utility.yul\":1701:1797   */\n      swap2\n      swap1\n      pop\n      jump\t// out\n        /* \"#utility.yul\":1803:1925   */\n    tag_111:\n        /* \"#utility.yul\":1876:1900   */\n      tag_149\n        /* \"#utility.yul\":1894:1899   */\n      dup2\n        /* \"#utility.yul\":1876:1900   */\n      tag_110\n      jump\t// in\n    tag_149:\n        /* \"#utility.yul\":1869:1874   */\n      dup2\n        /* \"#utility.yul\":1866:1901   */\n      eq\n        /* \"#utility.yul\":1856:1919   */\n      tag_150\n      jumpi\n        /* \"#utility.yul\":1915:1916   */\n      0x00\n        /* \"#utility.yul\":1912:1913   */\n      dup1\n        /* \"#utility.yul\":1905:1917   */\n      revert\n        /* \"#utility.yul\":1856:1919   */\n    tag_150:\n        /* \"#utility.yul\":1803:1925   */\n      pop\n      jump\t// out\n        /* \"#utility.yul\":1931:2070   */\n    tag_112:\n        /* \"#utility.yul\":1977:1982   */\n      0x00\n        /* \"#utility.yul\":2015:2021   */\n      dup2\n        /* \"#utility.yul\":2002:2022   */\n      calldataload\n        /* \"#utility.yul\":1993:2022   */\n      swap1\n      pop\n        /* \"#utility.yul\":2031:2064   */\n      tag_152\n        /* \"#utility.yul\":2058:2063   */\n      dup2\n        /* \"#utility.yul\":2031:2064   */\n      tag_111\n      jump\t// in\n    tag_152:\n        /* \"#utility.yul\":1931:2070   */\n      swap3\n      swap2\n      pop\n      pop\n      jump\t// out\n        /* \"#utility.yul\":2076:2153   */\n    tag_113:\n        /* \"#utility.yul\":2113:2120   */\n      0x00\n        /* \"#utility.yul\":2142:2147   */\n      dup2\n        /* \"#utility.yul\":2131:2147   */\n      swap1\n      pop\n        /* \"#utility.yul\":2076:2153   */\n      swap2\n      swap1\n      pop\n      jump\t// out\n        /* \"#utility.yul\":2159:2281   */\n    tag_114:\n        /* \"#utility.yul\":2232:2256   */\n      tag_155\n        /* \"#utility.yul\":2250:2255   */\n      dup2\n        /* \"#utility.yul\":2232:2256   */\n      tag_113\n      jump\t// in\n    tag_155:\n        /* \"#utility.yul\":2225:2230   */\n      dup2\n        /* \"#utility.yul\":2222:2257   */\n      eq\n        /* \"#utility.yul\":2212:2275   */\n      tag_156\n      jumpi\n        /* \"#utility.yul\":2271:2272   */\n      0x00\n        /* \"#utility.yul\":2268:2269   */\n      dup1\n        /* \"#utility.yul\":2261:2273   */\n      revert\n        /* \"#utility.yul\":2212:2275   */\n    tag_156:\n        /* \"#utility.yul\":2159:2281   */\n      pop\n      jump\t// out\n        /* \"#utility.yul\":2287:2426   */\n    tag_115:\n        /* \"#utility.yul\":2333:2338   */\n      0x00\n        /* \"#utility.yul\":2371:2377   */\n      dup2\n        /* \"#utility.yul\":2358:2378   */\n      calldataload\n        /* \"#utility.yul\":2349:2378   */\n      swap1\n      pop\n        /* \"#utility.yul\":2387:2420   */\n      tag_158\n        /* \"#utility.yul\":2414:2419   */\n      dup2\n        /* \"#utility.yul\":2387:2420   */\n      tag_114\n      jump\t// in\n    tag_158:\n        /* \"#utility.yul\":2287:2426   */\n      swap3\n      swap2\n      pop\n      pop\n      jump\t// out\n        /* \"#utility.yul\":2432:2906   */\n    tag_22:\n        /* \"#utility.yul\":2500:2506   */\n      0x00\n        /* \"#utility.yul\":2508:2514   */\n      dup1\n        /* \"#utility.yul\":2557:2559   */\n      0x40\n        /* \"#utility.yul\":2545:2554   */\n      dup4\n        /* \"#utility.yul\":2536:2543   */\n      dup6\n        /* \"#utility.yul\":2532:2555   */\n      sub\n        /* \"#utility.yul\":2528:2560   */\n      slt\n        /* \"#utility.yul\":2525:2644   */\n      iszero\n      tag_160\n      jumpi\n        /* \"#utility.yul\":2563:2642   */\n      tag_161\n      tag_107\n      jump\t// in\n    tag_161:\n        /* \"#utility.yul\":2525:2644   */\n    tag_160:\n        /* \"#utility.yul\":2683:2684   */\n      0x00\n        /* \"#utility.yul\":2708:2761   */\n      tag_162\n        /* \"#utility.yul\":2753:2760   */\n      dup6\n        /* \"#utility.yul\":2744:2750   */\n      dup3\n        /* \"#utility.yul\":2733:2742   */\n      dup7\n        /* \"#utility.yul\":2729:2751   */\n      add\n        /* \"#utility.yul\":2708:2761   */\n      tag_112\n      jump\t// in\n    tag_162:\n        /* \"#utility.yul\":2698:2761   */\n      swap3\n      pop\n        /* \"#utility.yul\":2654:2771   */\n      pop\n        /* \"#utility.yul\":2810:2812   */\n      0x20\n        /* \"#utility.yul\":2836:2889   */\n      tag_163\n        /* \"#utility.yul\":2881:2888   */\n      dup6\n        /* \"#utility.yul\":2872:2878   */\n      dup3\n        /* \"#utility.yul\":2861:2870   */\n      dup7\n        /* \"#utility.yul\":2857:2879   */\n      add\n        /* \"#utility.yul\":2836:2889   */\n      tag_115\n      jump\t// in\n    tag_163:\n        /* \"#utility.yul\":2826:2889   */\n      swap2\n      pop\n        /* \"#utility.yul\":2781:2899   */\n      pop\n        /* \"#utility.yul\":2432:2906   */\n      swap3\n      pop\n      swap3\n      swap1\n      pop\n      jump\t// out\n        /* \"#utility.yul\":2912:3002   */\n    tag_116:\n        /* \"#utility.yul\":2946:2953   */\n      0x00\n        /* \"#utility.yul\":2989:2994   */\n      dup2\n        /* \"#utility.yul\":2982:2995   */\n      iszero\n        /* \"#utility.yul\":2975:2996   */\n      iszero\n        /* \"#utility.yul\":2964:2996   */\n      swap1\n      pop\n        /* \"#utility.yul\":2912:3002   */\n      swap2\n      swap1\n      pop\n      jump\t// out\n        /* \"#utility.yul\":3008:3117   */\n    tag_117:\n        /* \"#utility.yul\":3089:3110   */\n      tag_166\n        /* \"#utility.yul\":3104:3109   */\n      dup2\n        /* \"#utility.yul\":3089:3110   */\n      tag_116\n      jump\t// in\n    tag_166:\n        /* \"#utility.yul\":3084:3087   */\n      dup3\n        /* \"#utility.yul\":3077:3111   */\n      mstore\n        /* \"#utility.yul\":3008:3117   */\n      pop\n      pop\n      jump\t// out\n        /* \"#utility.yul\":3123:3333   */\n    tag_25:\n        /* \"#utility.yul\":3210:3214   */\n      0x00\n        /* \"#utility.yul\":3248:3250   */\n      0x20\n        /* \"#utility.yul\":3237:3246   */\n      dup3\n        /* \"#utility.yul\":3233:3251   */\n      add\n        /* \"#utility.yul\":3225:3251   */\n      swap1\n      pop\n        /* \"#utility.yul\":3261:3326   */\n      tag_168\n        /* \"#utility.yul\":3323:3324   */\n      0x00\n        /* \"#utility.yul\":3312:3321   */\n      dup4\n        /* \"#utility.yul\":3308:3325   */\n      add\n        /* \"#utility.yul\":3299:3305   */\n      dup5\n        /* \"#utility.yul\":3261:3326   */\n      tag_117\n      jump\t// in\n    tag_168:\n        /* \"#utility.yul\":3123:3333   */\n      swap3\n      swap2\n      pop\n      pop\n      jump\t// out\n        /* \"#utility.yul\":3339:3457   */\n    tag_118:\n        /* \"#utility.yul\":3426:3450   */\n      tag_170\n        /* \"#utility.yul\":3444:3449   */\n      dup2\n        /* \"#utility.yul\":3426:3450   */\n      tag_113\n      jump\t// in\n    tag_170:\n        /* \"#utility.yul\":3421:3424   */\n      dup3\n        /* \"#utility.yul\":3414:3451   */\n      mstore\n        /* \"#utility.yul\":3339:3457   */\n      pop\n      pop\n      jump\t// out\n        /* \"#utility.yul\":3463:3685   */\n    tag_29:\n        /* \"#utility.yul\":3556:3560   */\n      0x00\n        /* \"#utility.yul\":3594:3596   */\n      0x20\n        /* \"#utility.yul\":3583:3592   */\n      dup3\n        /* \"#utility.yul\":3579:3597   */\n      add\n        /* \"#utility.yul\":3571:3597   */\n      swap1\n      pop\n        /* \"#utility.yul\":3607:3678   */\n      tag_172\n        /* \"#utility.yul\":3675:3676   */\n      0x00\n        /* \"#utility.yul\":3664:3673   */\n      dup4\n        /* \"#utility.yul\":3660:3677   */\n      add\n        /* \"#utility.yul\":3651:3657   */\n      dup5\n        /* \"#utility.yul\":3607:3678   */\n      tag_118\n      jump\t// in\n    tag_172:\n        /* \"#utility.yul\":3463:3685   */\n      swap3\n      swap2\n      pop\n      pop\n      jump\t// out\n        /* \"#utility.yul\":3691:4310   */\n    tag_32:\n        /* \"#utility.yul\":3768:3774   */\n      0x00\n        /* \"#utility.yul\":3776:3782   */\n      dup1\n        /* \"#utility.yul\":3784:3790   */\n      0x00\n        /* \"#utility.yul\":3833:3835   */\n      0x60\n        /* \"#utility.yul\":3821:3830   */\n      dup5\n        /* \"#utility.yul\":3812:3819   */\n      dup7\n        /* \"#utility.yul\":3808:3831   */\n      sub\n        /* \"#utility.yul\":3804:3836   */\n      slt\n        /* \"#utility.yul\":3801:3920   */\n      iszero\n      tag_174\n      jumpi\n        /* \"#utility.yul\":3839:3918   */\n      tag_175\n      tag_107\n      jump\t// in\n    tag_175:\n        /* \"#utility.yul\":3801:3920   */\n    tag_174:\n        /* \"#utility.yul\":3959:3960   */\n      0x00\n        /* \"#utility.yul\":3984:4037   */\n      tag_176\n        /* \"#utility.yul\":4029:4036   */\n      dup7\n        /* \"#utility.yul\":4020:4026   */\n      dup3\n        /* \"#utility.yul\":4009:4018   */\n      dup8\n        /* \"#utility.yul\":4005:4027   */\n      add\n        /* \"#utility.yul\":3984:4037   */\n      tag_112\n      jump\t// in\n    tag_176:\n        /* \"#utility.yul\":3974:4037   */\n      swap4\n      pop\n        /* \"#utility.yul\":3930:4047   */\n      pop\n        /* \"#utility.yul\":4086:4088   */\n      0x20\n        /* \"#utility.yul\":4112:4165   */\n      tag_177\n        /* \"#utility.yul\":4157:4164   */\n      dup7\n        /* \"#utility.yul\":4148:4154   */\n      dup3\n        /* \"#utility.yul\":4137:4146   */\n      dup8\n        /* \"#utility.yul\":4133:4155   */\n      add\n        /* \"#utility.yul\":4112:4165   */\n      tag_112\n      jump\t// in\n    tag_177:\n        /* \"#utility.yul\":4102:4165   */\n      swap3\n      pop\n        /* \"#utility.yul\":4057:4175   */\n      pop\n        /* \"#utility.yul\":4214:4216   */\n      0x40\n        /* \"#utility.yul\":4240:4293   */\n      tag_178\n        /* \"#utility.yul\":4285:4292   */\n      dup7\n        /* \"#utility.yul\":4276:4282   */\n      dup3\n        /* \"#utility.yul\":4265:4274   */\n      dup8\n        /* \"#utility.yul\":4261:4283   */\n      add\n        /* \"#utility.yul\":4240:4293   */\n      tag_115\n      jump\t// in\n    tag_178:\n        /* \"#utility.yul\":4230:4293   */\n      swap2\n      pop\n        /* \"#utility.yul\":4185:4303   */\n      pop\n        /* \"#utility.yul\":3691:4310   */\n      swap3\n      pop\n      swap3\n      pop\n      swap3\n      jump\t// out\n        /* \"#utility.yul\":4316:4402   */\n    tag_119:\n        /* \"#utility.yul\":4351:4358   */\n      0x00\n        /* \"#utility.yul\":4391:4395   */\n      0xff\n        /* \"#utility.yul\":4384:4389   */\n      dup3\n        /* \"#utility.yul\":4380:4396   */\n      and\n        /* \"#utility.yul\":4369:4396   */\n      swap1\n      pop\n        /* \"#utility.yul\":4316:4402   */\n      swap2\n      swap1\n      pop\n      jump\t// out\n        /* \"#utility.yul\":4408:4520   */\n    tag_120:\n        /* \"#utility.yul\":4491:4513   */\n      tag_181\n        /* \"#utility.yul\":4507:4512   */\n      dup2\n        /* \"#utility.yul\":4491:4513   */\n      tag_119\n      jump\t// in\n    tag_181:\n        /* \"#utility.yul\":4486:4489   */\n      dup3\n        /* \"#utility.yul\":4479:4514   */\n      mstore\n        /* \"#utility.yul\":4408:4520   */\n      pop\n      pop\n      jump\t// out\n        /* \"#utility.yul\":4526:4740   */\n    tag_38:\n        /* \"#utility.yul\":4615:4619   */\n      0x00\n        /* \"#utility.yul\":4653:4655   */\n      0x20\n        /* \"#utility.yul\":4642:4651   */\n      dup3\n        /* \"#utility.yul\":4638:4656   */\n      add\n        /* \"#utility.yul\":4630:4656   */\n      swap1\n      pop\n        /* \"#utility.yul\":4666:4733   */\n      tag_183\n        /* \"#utility.yul\":4730:4731   */\n      0x00\n        /* \"#utility.yul\":4719:4728   */\n      dup4\n        /* \"#utility.yul\":4715:4732   */\n      add\n        /* \"#utility.yul\":4706:4712   */\n      dup5\n        /* \"#utility.yul\":4666:4733   */\n      tag_120\n      jump\t// in\n    tag_183:\n        /* \"#utility.yul\":4526:4740   */\n      swap3\n      swap2\n      pop\n      pop\n      jump\t// out\n        /* \"#utility.yul\":4746:5075   */\n    tag_44:\n        /* \"#utility.yul\":4805:4811   */\n      0x00\n        /* \"#utility.yul\":4854:4856   */\n      0x20\n        /* \"#utility.yul\":4842:4851   */\n      dup3\n        /* \"#utility.yul\":4833:4840   */\n      dup5\n        /* \"#utility.yul\":4829:4852   */\n      sub\n        /* \"#utility.yul\":4825:4857   */\n      slt\n        /* \"#utility.yul\":4822:4941   */\n      iszero\n      tag_185\n      jumpi\n        /* \"#utility.yul\":4860:4939   */\n      tag_186\n      tag_107\n      jump\t// in\n    tag_186:\n        /* \"#utility.yul\":4822:4941   */\n    tag_185:\n        /* \"#utility.yul\":4980:4981   */\n      0x00\n        /* \"#utility.yul\":5005:5058   */\n      tag_187\n        /* \"#utility.yul\":5050:5057   */\n      dup5\n        /* \"#utility.yul\":5041:5047   */\n      dup3\n        /* \"#utility.yul\":5030:5039   */\n      dup6\n        /* \"#utility.yul\":5026:5048   */\n      add\n        /* \"#utility.yul\":5005:5058   */\n      tag_112\n      jump\t// in\n    tag_187:\n        /* \"#utility.yul\":4995:5058   */\n      swap2\n      pop\n        /* \"#utility.yul\":4951:5068   */\n      pop\n        /* \"#utility.yul\":4746:5075   */\n      swap3\n      swap2\n      pop\n      pop\n      jump\t// out\n        /* \"#utility.yul\":5081:5199   */\n    tag_121:\n        /* \"#utility.yul\":5168:5192   */\n      tag_189\n        /* \"#utility.yul\":5186:5191   */\n      dup2\n        /* \"#utility.yul\":5168:5192   */\n      tag_110\n      jump\t// in\n    tag_189:\n        /* \"#utility.yul\":5163:5166   */\n      dup3\n        /* \"#utility.yul\":5156:5193   */\n      mstore\n        /* \"#utility.yul\":5081:5199   */\n      pop\n      pop\n      jump\t// out\n        /* \"#utility.yul\":5205:5427   */\n    tag_50:\n        /* \"#utility.yul\":5298:5302   */\n      0x00\n        /* \"#utility.yul\":5336:5338   */\n      0x20\n        /* \"#utility.yul\":5325:5334   */\n      dup3\n        /* \"#utility.yul\":5321:5339   */\n      add\n        /* \"#utility.yul\":5313:5339   */\n      swap1\n      pop\n        /* \"#utility.yul\":5349:5420   */\n      tag_191\n        /* \"#utility.yul\":5417:5418   */\n      0x00\n        /* \"#utility.yul\":5406:5415   */\n      dup4\n        /* \"#utility.yul\":5402:5419   */\n      add\n        /* \"#utility.yul\":5393:5399   */\n      dup5\n        /* \"#utility.yul\":5349:5420   */\n      tag_121\n      jump\t// in\n    tag_191:\n        /* \"#utility.yul\":5205:5427   */\n      swap3\n      swap2\n      pop\n      pop\n      jump\t// out\n        /* \"#utility.yul\":5433:5907   */\n    tag_63:\n        /* \"#utility.yul\":5501:5507   */\n      0x00\n        /* \"#utility.yul\":5509:5515   */\n      dup1\n        /* \"#utility.yul\":5558:5560   */\n      0x40\n        /* \"#utility.yul\":5546:5555   */\n      dup4\n        /* \"#utility.yul\":5537:5544   */\n      dup6\n        /* \"#utility.yul\":5533:5556   */\n      sub\n        /* \"#utility.yul\":5529:5561   */\n      slt\n        /* \"#utility.yul\":5526:5645   */\n      iszero\n      tag_193\n      jumpi\n        /* \"#utility.yul\":5564:5643   */\n      tag_194\n      tag_107\n      jump\t// in\n    tag_194:\n        /* \"#utility.yul\":5526:5645   */\n    tag_193:\n        /* \"#utility.yul\":5684:5685   */\n      0x00\n        /* \"#utility.yul\":5709:5762   */\n      tag_195\n        /* \"#utility.yul\":5754:5761   */\n      dup6\n        /* \"#utility.yul\":5745:5751   */\n      dup3\n        /* \"#utility.yul\":5734:5743   */\n      dup7\n        /* \"#utility.yul\":5730:5752   */\n      add\n        /* \"#utility.yul\":5709:5762   */\n      tag_112\n      jump\t// in\n    tag_195:\n        /* \"#utility.yul\":5699:5762   */\n      swap3\n      pop\n        /* \"#utility.yul\":5655:5772   */\n      pop\n        /* \"#utility.yul\":5811:5813   */\n      0x20\n        /* \"#utility.yul\":5837:5890   */\n      tag_196\n        /* \"#utility.yul\":5882:5889   */\n      dup6\n        /* \"#utility.yul\":5873:5879   */\n      dup3\n        /* \"#utility.yul\":5862:5871   */\n      dup7\n        /* \"#utility.yul\":5858:5880   */\n      add\n        /* \"#utility.yul\":5837:5890   */\n      tag_112\n      jump\t// in\n    tag_196:\n        /* \"#utility.yul\":5827:5890   */\n      swap2\n      pop\n        /* \"#utility.yul\":5782:5900   */\n      pop\n        /* \"#utility.yul\":5433:5907   */\n      swap3\n      pop\n      swap3\n      swap1\n      pop\n      jump\t// out\n        /* \"#utility.yul\":5913:6093   */\n    tag_122:\n        /* \"#utility.yul\":5961:6038   */\n      0x4e487b7100000000000000000000000000000000000000000000000000000000\n        /* \"#utility.yul\":5958:5959   */\n      0x00\n        /* \"#utility.yul\":5951:6039   */\n      mstore\n        /* \"#utility.yul\":6058:6062   */\n      0x11\n        /* \"#utility.yul\":6055:6056   */\n      0x04\n        /* \"#utility.yul\":6048:6063   */\n      mstore\n        /* \"#utility.yul\":6082:6086   */\n      0x24\n        /* \"#utility.yul\":6079:6080   */\n      0x00\n        /* \"#utility.yul\":6072:6087   */\n      revert\n        /* \"#utility.yul\":6099:6290   */\n    tag_68:\n        /* \"#utility.yul\":6139:6142   */\n      0x00\n        /* \"#utility.yul\":6158:6178   */\n      tag_199\n        /* \"#utility.yul\":6176:6177   */\n      dup3\n        /* \"#utility.yul\":6158:6178   */\n      tag_113\n      jump\t// in\n    tag_199:\n        /* \"#utility.yul\":6153:6178   */\n      swap2\n      pop\n        /* \"#utility.yul\":6192:6212   */\n      tag_200\n        /* \"#utility.yul\":6210:6211   */\n      dup4\n        /* \"#utility.yul\":6192:6212   */\n      tag_113\n      jump\t// in\n    tag_200:\n        /* \"#utility.yul\":6187:6212   */\n      swap3\n      pop\n        /* \"#utility.yul\":6235:6236   */\n      dup3\n        /* \"#utility.yul\":6232:6233   */\n      dup3\n        /* \"#utility.yul\":6228:6237   */\n      add\n        /* \"#utility.yul\":6221:6237   */\n      swap1\n      pop\n        /* \"#utility.yul\":6256:6259   */\n      dup1\n        /* \"#utility.yul\":6253:6254   */\n      dup3\n        /* \"#utility.yul\":6250:6260   */\n      gt\n        /* \"#utility.yul\":6247:6283   */\n      iszero\n      tag_201\n      jumpi\n        /* \"#utility.yul\":6263:6281   */\n      tag_202\n      tag_122\n      jump\t// in\n    tag_202:\n        /* \"#utility.yul\":6247:6283   */\n    tag_201:\n        /* \"#utility.yul\":6099:6290   */\n      swap3\n      swap2\n      pop\n      pop\n      jump\t// out\n        /* \"#utility.yul\":6296:6475   */\n    tag_123:\n        /* \"#utility.yul\":6436:6467   */\n      0x45524332303a20496e73756666696369656e7420416c6c6f77616e6365000000\n        /* \"#utility.yul\":6432:6433   */\n      0x00\n        /* \"#utility.yul\":6424:6430   */\n      dup3\n        /* \"#utility.yul\":6420:6434   */\n      add\n        /* \"#utility.yul\":6413:6468   */\n      mstore\n        /* \"#utility.yul\":6296:6475   */\n      pop\n      jump\t// out\n        /* \"#utility.yul\":6481:6847   */\n    tag_124:\n        /* \"#utility.yul\":6623:6626   */\n      0x00\n        /* \"#utility.yul\":6644:6711   */\n      tag_205\n        /* \"#utility.yul\":6708:6710   */\n      0x1d\n        /* \"#utility.yul\":6703:6706   */\n      dup4\n        /* \"#utility.yul\":6644:6711   */\n      tag_102\n      jump\t// in\n    tag_205:\n        /* \"#utility.yul\":6637:6711   */\n      swap2\n      pop\n        /* \"#utility.yul\":6720:6813   */\n      tag_206\n        /* \"#utility.yul\":6809:6812   */\n      dup3\n        /* \"#utility.yul\":6720:6813   */\n      tag_123\n      jump\t// in\n    tag_206:\n        /* \"#utility.yul\":6838:6840   */\n      0x20\n        /* \"#utility.yul\":6833:6836   */\n      dup3\n        /* \"#utility.yul\":6829:6841   */\n      add\n        /* \"#utility.yul\":6822:6841   */\n      swap1\n      pop\n        /* \"#utility.yul\":6481:6847   */\n      swap2\n      swap1\n      pop\n      jump\t// out\n        /* \"#utility.yul\":6853:7272   */\n    tag_73:\n        /* \"#utility.yul\":7019:7023   */\n      0x00\n        /* \"#utility.yul\":7057:7059   */\n      0x20\n        /* \"#utility.yul\":7046:7055   */\n      dup3\n        /* \"#utility.yul\":7042:7060   */\n      add\n        /* \"#utility.yul\":7034:7060   */\n      swap1\n      pop\n        /* \"#utility.yul\":7106:7115   */\n      dup2\n        /* \"#utility.yul\":7100:7104   */\n      dup2\n        /* \"#utility.yul\":7096:7116   */\n      sub\n        /* \"#utility.yul\":7092:7093   */\n      0x00\n        /* \"#utility.yul\":7081:7090   */\n      dup4\n        /* \"#utility.yul\":7077:7094   */\n      add\n        /* \"#utility.yul\":7070:7117   */\n      mstore\n        /* \"#utility.yul\":7134:7265   */\n      tag_208\n        /* \"#utility.yul\":7260:7264   */\n      dup2\n        /* \"#utility.yul\":7134:7265   */\n      tag_124\n      jump\t// in\n    tag_208:\n        /* \"#utility.yul\":7126:7265   */\n      swap1\n      pop\n        /* \"#utility.yul\":6853:7272   */\n      swap2\n      swap1\n      pop\n      jump\t// out\n        /* \"#utility.yul\":7278:7472   */\n    tag_75:\n        /* \"#utility.yul\":7318:7322   */\n      0x00\n        /* \"#utility.yul\":7338:7358   */\n      tag_210\n        /* \"#utility.yul\":7356:7357   */\n      dup3\n        /* \"#utility.yul\":7338:7358   */\n      tag_113\n      jump\t// in\n    tag_210:\n        /* \"#utility.yul\":7333:7358   */\n      swap2\n      pop\n        /* \"#utility.yul\":7372:7392   */\n      tag_211\n        /* \"#utility.yul\":7390:7391   */\n      dup4\n        /* \"#utility.yul\":7372:7392   */\n      tag_113\n      jump\t// in\n    tag_211:\n        /* \"#utility.yul\":7367:7392   */\n      swap3\n      pop\n        /* \"#utility.yul\":7416:7417   */\n      dup3\n        /* \"#utility.yul\":7413:7414   */\n      dup3\n        /* \"#utility.yul\":7409:7418   */\n      sub\n        /* \"#utility.yul\":7401:7418   */\n      swap1\n      pop\n        /* \"#utility.yul\":7440:7441   */\n      dup2\n        /* \"#utility.yul\":7434:7438   */\n      dup2\n        /* \"#utility.yul\":7431:7442   */\n      gt\n        /* \"#utility.yul\":7428:7465   */\n      iszero\n      tag_212\n      jumpi\n        /* \"#utility.yul\":7445:7463   */\n      tag_213\n      tag_122\n      jump\t// in\n    tag_213:\n        /* \"#utility.yul\":7428:7465   */\n    tag_212:\n        /* \"#utility.yul\":7278:7472   */\n      swap3\n      swap2\n      pop\n      pop\n      jump\t// out\n        /* \"#utility.yul\":7478:7641   */\n    tag_125:\n        /* \"#utility.yul\":7618:7633   */\n      0x4e6f7420746865206f776e657200000000000000000000000000000000000000\n        /* \"#utility.yul\":7614:7615   */\n      0x00\n        /* \"#utility.yul\":7606:7612   */\n      dup3\n        /* \"#utility.yul\":7602:7616   */\n      add\n        /* \"#utility.yul\":7595:7634   */\n      mstore\n        /* \"#utility.yul\":7478:7641   */\n      pop\n      jump\t// out\n        /* \"#utility.yul\":7647:8013   */\n    tag_126:\n        /* \"#utility.yul\":7789:7792   */\n      0x00\n        /* \"#utility.yul\":7810:7877   */\n      tag_216\n        /* \"#utility.yul\":7874:7876   */\n      0x0d\n        /* \"#utility.yul\":7869:7872   */\n      dup4\n        /* \"#utility.yul\":7810:7877   */\n      tag_102\n      jump\t// in\n    tag_216:\n        /* \"#utility.yul\":7803:7877   */\n      swap2\n      pop\n        /* \"#utility.yul\":7886:7979   */\n      tag_217\n        /* \"#utility.yul\":7975:7978   */\n      dup3\n        /* \"#utility.yul\":7886:7979   */\n      tag_125\n      jump\t// in\n    tag_217:\n        /* \"#utility.yul\":8004:8006   */\n      0x20\n        /* \"#utility.yul\":7999:8002   */\n      dup3\n        /* \"#utility.yul\":7995:8007   */\n      add\n        /* \"#utility.yul\":7988:8007   */\n      swap1\n      pop\n        /* \"#utility.yul\":7647:8013   */\n      swap2\n      swap1\n      pop\n      jump\t// out\n        /* \"#utility.yul\":8019:8438   */\n    tag_82:\n        /* \"#utility.yul\":8185:8189   */\n      0x00\n        /* \"#utility.yul\":8223:8225   */\n      0x20\n        /* \"#utility.yul\":8212:8221   */\n      dup3\n        /* \"#utility.yul\":8208:8226   */\n      add\n        /* \"#utility.yul\":8200:8226   */\n      swap1\n      pop\n        /* \"#utility.yul\":8272:8281   */\n      dup2\n        /* \"#utility.yul\":8266:8270   */\n      dup2\n        /* \"#utility.yul\":8262:8282   */\n      sub\n        /* \"#utility.yul\":8258:8259   */\n      0x00\n        /* \"#utility.yul\":8247:8256   */\n      dup4\n        /* \"#utility.yul\":8243:8260   */\n      add\n        /* \"#utility.yul\":8236:8283   */\n      mstore\n        /* \"#utility.yul\":8300:8431   */\n      tag_219\n        /* \"#utility.yul\":8426:8430   */\n      dup2\n        /* \"#utility.yul\":8300:8431   */\n      tag_126\n      jump\t// in\n    tag_219:\n        /* \"#utility.yul\":8292:8431   */\n      swap1\n      pop\n        /* \"#utility.yul\":8019:8438   */\n      swap2\n      swap1\n      pop\n      jump\t// out\n        /* \"#utility.yul\":8444:8665   */\n    tag_127:\n        /* \"#utility.yul\":8584:8618   */\n      0x45524332303a20496e73756666696369656e742073656e6465722062616c616e\n        /* \"#utility.yul\":8580:8581   */\n      0x00\n        /* \"#utility.yul\":8572:8578   */\n      dup3\n        /* \"#utility.yul\":8568:8582   */\n      add\n        /* \"#utility.yul\":8561:8619   */\n      mstore\n        /* \"#utility.yul\":8653:8657   */\n      0x6365000000000000000000000000000000000000000000000000000000000000\n        /* \"#utility.yul\":8648:8650   */\n      0x20\n        /* \"#utility.yul\":8640:8646   */\n      dup3\n        /* \"#utility.yul\":8636:8651   */\n      add\n        /* \"#utility.yul\":8629:8658   */\n      mstore\n        /* \"#utility.yul\":8444:8665   */\n      pop\n      jump\t// out\n        /* \"#utility.yul\":8671:9037   */\n    tag_128:\n        /* \"#utility.yul\":8813:8816   */\n      0x00\n        /* \"#utility.yul\":8834:8901   */\n      tag_222\n        /* \"#utility.yul\":8898:8900   */\n      0x22\n        /* \"#utility.yul\":8893:8896   */\n      dup4\n        /* \"#utility.yul\":8834:8901   */\n      tag_102\n      jump\t// in\n    tag_222:\n        /* \"#utility.yul\":8827:8901   */\n      swap2\n      pop\n        /* \"#utility.yul\":8910:9003   */\n      tag_223\n        /* \"#utility.yul\":8999:9002   */\n      dup3\n        /* \"#utility.yul\":8910:9003   */\n      tag_127\n      jump\t// in\n    tag_223:\n        /* \"#utility.yul\":9028:9030   */\n      0x40\n        /* \"#utility.yul\":9023:9026   */\n      dup3\n        /* \"#utility.yul\":9019:9031   */\n      add\n        /* \"#utility.yul\":9012:9031   */\n      swap1\n      pop\n        /* \"#utility.yul\":8671:9037   */\n      swap2\n      swap1\n      pop\n      jump\t// out\n        /* \"#utility.yul\":9043:9462   */\n    tag_92:\n        /* \"#utility.yul\":9209:9213   */\n      0x00\n        /* \"#utility.yul\":9247:9249   */\n      0x20\n        /* \"#utility.yul\":9236:9245   */\n      dup3\n        /* \"#utility.yul\":9232:9250   */\n      add\n        /* \"#utility.yul\":9224:9250   */\n      swap1\n      pop\n        /* \"#utility.yul\":9296:9305   */\n      dup2\n        /* \"#utility.yul\":9290:9294   */\n      dup2\n        /* \"#utility.yul\":9286:9306   */\n      sub\n        /* \"#utility.yul\":9282:9283   */\n      0x00\n        /* \"#utility.yul\":9271:9280   */\n      dup4\n        /* \"#utility.yul\":9267:9284   */\n      add\n        /* \"#utility.yul\":9260:9307   */\n      mstore\n        /* \"#utility.yul\":9324:9455   */\n      tag_225\n        /* \"#utility.yul\":9450:9454   */\n      dup2\n        /* \"#utility.yul\":9324:9455   */\n      tag_128\n      jump\t// in\n    tag_225:\n        /* \"#utility.yul\":9316:9455   */\n      swap1\n      pop\n        /* \"#utility.yul\":9043:9462   */\n      swap2\n      swap1\n      pop\n      jump\t// out\n        /* \"#utility.yul\":9468:9648   */\n    tag_129:\n        /* \"#utility.yul\":9516:9593   */\n      0x4e487b7100000000000000000000000000000000000000000000000000000000\n        /* \"#utility.yul\":9513:9514   */\n      0x00\n        /* \"#utility.yul\":9506:9594   */\n      mstore\n        /* \"#utility.yul\":9613:9617   */\n      0x12\n        /* \"#utility.yul\":9610:9611   */\n      0x04\n        /* \"#utility.yul\":9603:9618   */\n      mstore\n        /* \"#utility.yul\":9637:9641   */\n      0x24\n        /* \"#utility.yul\":9634:9635   */\n      0x00\n        /* \"#utility.yul\":9627:9642   */\n      revert\n        /* \"#utility.yul\":9654:9839   */\n    tag_94:\n        /* \"#utility.yul\":9694:9695   */\n      0x00\n        /* \"#utility.yul\":9711:9731   */\n      tag_228\n        /* \"#utility.yul\":9729:9730   */\n      dup3\n        /* \"#utility.yul\":9711:9731   */\n      tag_113\n      jump\t// in\n    tag_228:\n        /* \"#utility.yul\":9706:9731   */\n      swap2\n      pop\n        /* \"#utility.yul\":9745:9765   */\n      tag_229\n        /* \"#utility.yul\":9763:9764   */\n      dup4\n        /* \"#utility.yul\":9745:9765   */\n      tag_113\n      jump\t// in\n    tag_229:\n        /* \"#utility.yul\":9740:9765   */\n      swap3\n      pop\n        /* \"#utility.yul\":9784:9785   */\n      dup3\n        /* \"#utility.yul\":9774:9809   */\n      tag_230\n      jumpi\n        /* \"#utility.yul\":9789:9807   */\n      tag_231\n      tag_129\n      jump\t// in\n    tag_231:\n        /* \"#utility.yul\":9774:9809   */\n    tag_230:\n        /* \"#utility.yul\":9831:9832   */\n      dup3\n        /* \"#utility.yul\":9828:9829   */\n      dup3\n        /* \"#utility.yul\":9824:9833   */\n      div\n        /* \"#utility.yul\":9819:9833   */\n      swap1\n      pop\n        /* \"#utility.yul\":9654:9839   */\n      swap3\n      swap2\n      pop\n      pop\n      jump\t// out\n\n    auxdata: 0xa26469706673582212208fc2d3d1a15e1db3f5c5e07ea58275b3dd349378e4980b28119ce6787ee3c3df64736f6c634300081a0033\n}\n",
				"bytecode": {
					"linkReferences": {},
					"object": "608060405273a26d8af9d02dc35c1bc05bd46528b24b71b83d9660025f6101000a81548173ffffffffffffffffffffffffffffffffffffffff021916908373ffffffffffffffffffffffffffffffffffffffff1602179055503480156062575f80fd5b503360015f6101000a81548173ffffffffffffffffffffffffffffffffffffffff021916908373ffffffffffffffffffffffffffffffffffffffff16021790555061109d806100b05f395ff3fe608060405234801561000f575f80fd5b50600436106100b2575f3560e01c806370a082311161006f57806370a082311461018c5780638da5cb5b146101bc57806395d89b41146101da578063a9059cbb146101f8578063c415b95c14610228578063dd62ed3e14610246576100b2565b806306fdde03146100b6578063095ea7b3146100d457806318160ddd1461010457806323b872dd14610122578063313ce5671461015257806340c10f1914610170575b5f80fd5b6100be610276565b6040516100cb9190610bba565b60405180910390f35b6100ee60048036038101906100e99190610c6b565b6102af565b6040516100fb9190610cc3565b60405180910390f35b61010c610425565b6040516101199190610ceb565b60405180910390f35b61013c60048036038101906101379190610d04565b61042a565b6040516101499190610cc3565b60405180910390f35b61015a610665565b6040516101679190610d6f565b60405180910390f35b61018a60048036038101906101859190610c6b565b61066a565b005b6101a660048036038101906101a19190610d88565b6107cc565b6040516101b39190610ceb565b60405180910390f35b6101c46107e1565b6040516101d19190610dc2565b60405180910390f35b6101e2610806565b6040516101ef9190610bba565b60405180910390f35b610212600480360381019061020d9190610c6b565b61083f565b60405161021f9190610cc3565b60405180910390f35b610230610853565b60405161023d9190610dc2565b60405180910390f35b610260600480360381019061025b9190610ddb565b610878565b60405161026d9190610ceb565b60405180910390f35b6040518060400160405280600b81526020017f4d79546f6b656e4e616d6500000000000000000000000000000000000000000081525081565b5f8160045f3373ffffffffffffffffffffffffffffffffffffffff1673ffffffffffffffffffffffffffffffffffffffff1681526020019081526020015f205f8573ffffffffffffffffffffffffffffffffffffffff1673ffffffffffffffffffffffffffffffffffffffff1681526020019081526020015f205f8282546103379190610e46565b925050819055508273ffffffffffffffffffffffffffffffffffffffff163373ffffffffffffffffffffffffffffffffffffffff167f8c5be1e5ebec7d5bd14f71427d1e84f3dd0314c0f7b2291e5b200ac8c7c3b92560045f3373ffffffffffffffffffffffffffffffffffffffff1673ffffffffffffffffffffffffffffffffffffffff1681526020019081526020015f205f8773ffffffffffffffffffffffffffffffffffffffff1673ffffffffffffffffffffffffffffffffffffffff1681526020019081526020015f20546040516104139190610ceb565b60405180910390a36001905092915050565b5f5481565b5f8160045f8673ffffffffffffffffffffffffffffffffffffffff1673ffffffffffffffffffffffffffffffffffffffff1681526020019081526020015f205f3373ffffffffffffffffffffffffffffffffffffffff1673ffffffffffffffffffffffffffffffffffffffff1681526020019081526020015f205410156104e6576040517f08c379a00000000000000000000000000000000000000000000000000000000081526004016104dd90610ec3565b60405180910390fd5b8160045f8673ffffffffffffffffffffffffffffffffffffffff1673ffffffffffffffffffffffffffffffffffffffff1681526020019081526020015f205f3373ffffffffffffffffffffffffffffffffffffffff1673ffffffffffffffffffffffffffffffffffffffff1681526020019081526020015f205f82825461056d9190610ee1565b925050819055503373ffffffffffffffffffffffffffffffffffffffff168473ffffffffffffffffffffffffffffffffffffffff167f8c5be1e5ebec7d5bd14f71427d1e84f3dd0314c0f7b2291e5b200ac8c7c3b92560045f8873ffffffffffffffffffffffffffffffffffffffff1673ffffffffffffffffffffffffffffffffffffffff1681526020019081526020015f205f3373ffffffffffffffffffffffffffffffffffffffff1673ffffffffffffffffffffffffffffffffffffffff1681526020019081526020015f20546040516106499190610ceb565b60405180910390a361065c848484610898565b90509392505050565b601281565b60015f9054906101000a900473ffffffffffffffffffffffffffffffffffffffff1673ffffffffffffffffffffffffffffffffffffffff163373ffffffffffffffffffffffffffffffffffffffff16146106f9576040517f08c379a00000000000000000000000000000000000000000000000000000000081526004016106f090610f5e565b60405180910390fd5b8060035f8473ffffffffffffffffffffffffffffffffffffffff1673ffffffffffffffffffffffffffffffffffffffff1681526020019081526020015f205f8282546107459190610e46565b92505081905550805f8082825461075c9190610e46565b925050819055508173ffffffffffffffffffffffffffffffffffffffff165f73ffffffffffffffffffffffffffffffffffffffff167fddf252ad1be2c89b69c2b068fc378daa952ba7f163c4a11628f55a4df523b3ef836040516107c09190610ceb565b60405180910390a35050565b6003602052805f5260405f205f915090505481565b60015f9054906101000a900473ffffffffffffffffffffffffffffffffffffffff1681565b6040518060400160405280600381526020017f4d544e000000000000000000000000000000000000000000000000000000000081525081565b5f61084b338484610898565b905092915050565b60025f9054906101000a900473ffffffffffffffffffffffffffffffffffffffff1681565b6004602052815f5260405f20602052805f5260405f205f91509150505481565b5f8160035f8673ffffffffffffffffffffffffffffffffffffffff1673ffffffffffffffffffffffffffffffffffffffff1681526020019081526020015f20541015610919576040517f08c379a000000000000000000000000000000000000000000000000000000000815260040161091090610fec565b60405180910390fd5b5f6064836109279190611037565b90505f81846109369190610ee1565b90508360035f8873ffffffffffffffffffffffffffffffffffffffff1673ffffffffffffffffffffffffffffffffffffffff1681526020019081526020015f205f8282546109849190610ee1565b925050819055508060035f8773ffffffffffffffffffffffffffffffffffffffff1673ffffffffffffffffffffffffffffffffffffffff1681526020019081526020015f205f8282546109d79190610e46565b925050819055508160035f60025f9054906101000a900473ffffffffffffffffffffffffffffffffffffffff1673ffffffffffffffffffffffffffffffffffffffff1673ffffffffffffffffffffffffffffffffffffffff1681526020019081526020015f205f828254610a4b9190610e46565b925050819055508473ffffffffffffffffffffffffffffffffffffffff168673ffffffffffffffffffffffffffffffffffffffff167fddf252ad1be2c89b69c2b068fc378daa952ba7f163c4a11628f55a4df523b3ef83604051610aaf9190610ceb565b60405180910390a360025f9054906101000a900473ffffffffffffffffffffffffffffffffffffffff1673ffffffffffffffffffffffffffffffffffffffff168673ffffffffffffffffffffffffffffffffffffffff167fddf252ad1be2c89b69c2b068fc378daa952ba7f163c4a11628f55a4df523b3ef84604051610b359190610ceb565b60405180910390a36001925050509392505050565b5f81519050919050565b5f82825260208201905092915050565b8281835e5f83830152505050565b5f601f19601f8301169050919050565b5f610b8c82610b4a565b610b968185610b54565b9350610ba6818560208601610b64565b610baf81610b72565b840191505092915050565b5f6020820190508181035f830152610bd28184610b82565b905092915050565b5f80fd5b5f73ffffffffffffffffffffffffffffffffffffffff82169050919050565b5f610c0782610bde565b9050919050565b610c1781610bfd565b8114610c21575f80fd5b50565b5f81359050610c3281610c0e565b92915050565b5f819050919050565b610c4a81610c38565b8114610c54575f80fd5b50565b5f81359050610c6581610c41565b92915050565b5f8060408385031215610c8157610c80610bda565b5b5f610c8e85828601610c24565b9250506020610c9f85828601610c57565b9150509250929050565b5f8115159050919050565b610cbd81610ca9565b82525050565b5f602082019050610cd65f830184610cb4565b92915050565b610ce581610c38565b82525050565b5f602082019050610cfe5f830184610cdc565b92915050565b5f805f60608486031215610d1b57610d1a610bda565b5b5f610d2886828701610c24565b9350506020610d3986828701610c24565b9250506040610d4a86828701610c57565b9150509250925092565b5f60ff82169050919050565b610d6981610d54565b82525050565b5f602082019050610d825f830184610d60565b92915050565b5f60208284031215610d9d57610d9c610bda565b5b5f610daa84828501610c24565b91505092915050565b610dbc81610bfd565b82525050565b5f602082019050610dd55f830184610db3565b92915050565b5f8060408385031215610df157610df0610bda565b5b5f610dfe85828601610c24565b9250506020610e0f85828601610c24565b9150509250929050565b7f4e487b71000000000000000000000000000000000000000000000000000000005f52601160045260245ffd5b5f610e5082610c38565b9150610e5b83610c38565b9250828201905080821115610e7357610e72610e19565b5b92915050565b7f45524332303a20496e73756666696369656e7420416c6c6f77616e63650000005f82015250565b5f610ead601d83610b54565b9150610eb882610e79565b602082019050919050565b5f6020820190508181035f830152610eda81610ea1565b9050919050565b5f610eeb82610c38565b9150610ef683610c38565b9250828203905081811115610f0e57610f0d610e19565b5b92915050565b7f4e6f7420746865206f776e6572000000000000000000000000000000000000005f82015250565b5f610f48600d83610b54565b9150610f5382610f14565b602082019050919050565b5f6020820190508181035f830152610f7581610f3c565b9050919050565b7f45524332303a20496e73756666696369656e742073656e6465722062616c616e5f8201527f6365000000000000000000000000000000000000000000000000000000000000602082015250565b5f610fd6602283610b54565b9150610fe182610f7c565b604082019050919050565b5f6020820190508181035f83015261100381610fca565b9050919050565b7f4e487b71000000000000000000000000000000000000000000000000000000005f52601260045260245ffd5b5f61104182610c38565b915061104c83610c38565b92508261105c5761105b61100a565b5b82820490509291505056fea26469706673582212208fc2d3d1a15e1db3f5c5e07ea58275b3dd349378e4980b28119ce6787ee3c3df64736f6c634300081a0033",
					"opcodes": "PUSH1 0x80 PUSH1 0x40 MSTORE PUSH20 0xA26D8AF9D02DC35C1BC05BD46528B24B71B83D96 PUSH1 0x2 PUSH0 PUSH2 0x100 EXP DUP2 SLOAD DUP2 PUSH20 0xFFFFFFFFFFFFFFFFFFFFFFFFFFFFFFFFFFFFFFFF MUL NOT AND SWAP1 DUP4 PUSH20 0xFFFFFFFFFFFFFFFFFFFFFFFFFFFFFFFFFFFFFFFF AND MUL OR SWAP1 SSTORE POP CALLVALUE DUP1 ISZERO PUSH1 0x62 JUMPI PUSH0 DUP1 REVERT JUMPDEST POP CALLER PUSH1 0x1 PUSH0 PUSH2 0x100 EXP DUP2 SLOAD DUP2 PUSH20 0xFFFFFFFFFFFFFFFFFFFFFFFFFFFFFFFFFFFFFFFF MUL NOT AND SWAP1 DUP4 PUSH20 0xFFFFFFFFFFFFFFFFFFFFFFFFFFFFFFFFFFFFFFFF AND MUL OR SWAP1 SSTORE POP PUSH2 0x109D DUP1 PUSH2 0xB0 PUSH0 CODECOPY PUSH0 RETURN INVALID PUSH1 0x80 PUSH1 0x40 MSTORE CALLVALUE DUP1 ISZERO PUSH2 0xF JUMPI PUSH0 DUP1 REVERT JUMPDEST POP PUSH1 0x4 CALLDATASIZE LT PUSH2 0xB2 JUMPI PUSH0 CALLDATALOAD PUSH1 0xE0 SHR DUP1 PUSH4 0x70A08231 GT PUSH2 0x6F JUMPI DUP1 PUSH4 0x70A08231 EQ PUSH2 0x18C JUMPI DUP1 PUSH4 0x8DA5CB5B EQ PUSH2 0x1BC JUMPI DUP1 PUSH4 0x95D89B41 EQ PUSH2 0x1DA JUMPI DUP1 PUSH4 0xA9059CBB EQ PUSH2 0x1F8 JUMPI DUP1 PUSH4 0xC415B95C EQ PUSH2 0x228 JUMPI DUP1 PUSH4 0xDD62ED3E EQ PUSH2 0x246 JUMPI PUSH2 0xB2 JUMP JUMPDEST DUP1 PUSH4 0x6FDDE03 EQ PUSH2 0xB6 JUMPI DUP1 PUSH4 0x95EA7B3 EQ PUSH2 0xD4 JUMPI DUP1 PUSH4 0x18160DDD EQ PUSH2 0x104 JUMPI DUP1 PUSH4 0x23B872DD EQ PUSH2 0x122 JUMPI DUP1 PUSH4 0x313CE567 EQ PUSH2 0x152 JUMPI DUP1 PUSH4 0x40C10F19 EQ PUSH2 0x170 JUMPI JUMPDEST PUSH0 DUP1 REVERT JUMPDEST PUSH2 0xBE PUSH2 0x276 JUMP JUMPDEST PUSH1 0x40 MLOAD PUSH2 0xCB SWAP2 SWAP1 PUSH2 0xBBA JUMP JUMPDEST PUSH1 0x40 MLOAD DUP1 SWAP2 SUB SWAP1 RETURN JUMPDEST PUSH2 0xEE PUSH1 0x4 DUP1 CALLDATASIZE SUB DUP2 ADD SWAP1 PUSH2 0xE9 SWAP2 SWAP1 PUSH2 0xC6B JUMP JUMPDEST PUSH2 0x2AF JUMP JUMPDEST PUSH1 0x40 MLOAD PUSH2 0xFB SWAP2 SWAP1 PUSH2 0xCC3 JUMP JUMPDEST PUSH1 0x40 MLOAD DUP1 SWAP2 SUB SWAP1 RETURN JUMPDEST PUSH2 0x10C PUSH2 0x425 JUMP JUMPDEST PUSH1 0x40 MLOAD PUSH2 0x119 SWAP2 SWAP1 PUSH2 0xCEB JUMP JUMPDEST PUSH1 0x40 MLOAD DUP1 SWAP2 SUB SWAP1 RETURN JUMPDEST PUSH2 0x13C PUSH1 0x4 DUP1 CALLDATASIZE SUB DUP2 ADD SWAP1 PUSH2 0x137 SWAP2 SWAP1 PUSH2 0xD04 JUMP JUMPDEST PUSH2 0x42A JUMP JUMPDEST PUSH1 0x40 MLOAD PUSH2 0x149 SWAP2 SWAP1 PUSH2 0xCC3 JUMP JUMPDEST PUSH1 0x40 MLOAD DUP1 SWAP2 SUB SWAP1 RETURN JUMPDEST PUSH2 0x15A PUSH2 0x665 JUMP JUMPDEST PUSH1 0x40 MLOAD PUSH2 0x167 SWAP2 SWAP1 PUSH2 0xD6F JUMP JUMPDEST PUSH1 0x40 MLOAD DUP1 SWAP2 SUB SWAP1 RETURN JUMPDEST PUSH2 0x18A PUSH1 0x4 DUP1 CALLDATASIZE SUB DUP2 ADD SWAP1 PUSH2 0x185 SWAP2 SWAP1 PUSH2 0xC6B JUMP JUMPDEST PUSH2 0x66A JUMP JUMPDEST STOP JUMPDEST PUSH2 0x1A6 PUSH1 0x4 DUP1 CALLDATASIZE SUB DUP2 ADD SWAP1 PUSH2 0x1A1 SWAP2 SWAP1 PUSH2 0xD88 JUMP JUMPDEST PUSH2 0x7CC JUMP JUMPDEST PUSH1 0x40 MLOAD PUSH2 0x1B3 SWAP2 SWAP1 PUSH2 0xCEB JUMP JUMPDEST PUSH1 0x40 MLOAD DUP1 SWAP2 SUB SWAP1 RETURN JUMPDEST PUSH2 0x1C4 PUSH2 0x7E1 JUMP JUMPDEST PUSH1 0x40 MLOAD PUSH2 0x1D1 SWAP2 SWAP1 PUSH2 0xDC2 JUMP JUMPDEST PUSH1 0x40 MLOAD DUP1 SWAP2 SUB SWAP1 RETURN JUMPDEST PUSH2 0x1E2 PUSH2 0x806 JUMP JUMPDEST PUSH1 0x40 MLOAD PUSH2 0x1EF SWAP2 SWAP1 PUSH2 0xBBA JUMP JUMPDEST PUSH1 0x40 MLOAD DUP1 SWAP2 SUB SWAP1 RETURN JUMPDEST PUSH2 0x212 PUSH1 0x4 DUP1 CALLDATASIZE SUB DUP2 ADD SWAP1 PUSH2 0x20D SWAP2 SWAP1 PUSH2 0xC6B JUMP JUMPDEST PUSH2 0x83F JUMP JUMPDEST PUSH1 0x40 MLOAD PUSH2 0x21F SWAP2 SWAP1 PUSH2 0xCC3 JUMP JUMPDEST PUSH1 0x40 MLOAD DUP1 SWAP2 SUB SWAP1 RETURN JUMPDEST PUSH2 0x230 PUSH2 0x853 JUMP JUMPDEST PUSH1 0x40 MLOAD PUSH2 0x23D SWAP2 SWAP1 PUSH2 0xDC2 JUMP JUMPDEST PUSH1 0x40 MLOAD DUP1 SWAP2 SUB SWAP1 RETURN JUMPDEST PUSH2 0x260 PUSH1 0x4 DUP1 CALLDATASIZE SUB DUP2 ADD SWAP1 PUSH2 0x25B SWAP2 SWAP1 PUSH2 0xDDB JUMP JUMPDEST PUSH2 0x878 JUMP JUMPDEST PUSH1 0x40 MLOAD PUSH2 0x26D SWAP2 SWAP1 PUSH2 0xCEB JUMP JUMPDEST PUSH1 0x40 MLOAD DUP1 SWAP2 SUB SWAP1 RETURN JUMPDEST PUSH1 0x40 MLOAD DUP1 PUSH1 0x40 ADD PUSH1 0x40 MSTORE DUP1 PUSH1 0xB DUP2 MSTORE PUSH1 0x20 ADD PUSH32 0x4D79546F6B656E4E616D65000000000000000000000000000000000000000000 DUP2 MSTORE POP DUP2 JUMP JUMPDEST PUSH0 DUP2 PUSH1 0x4 PUSH0 CALLER PUSH20 0xFFFFFFFFFFFFFFFFFFFFFFFFFFFFFFFFFFFFFFFF AND PUSH20 0xFFFFFFFFFFFFFFFFFFFFFFFFFFFFFFFFFFFFFFFF AND DUP2 MSTORE PUSH1 0x20 ADD SWAP1 DUP2 MSTORE PUSH1 0x20 ADD PUSH0 KECCAK256 PUSH0 DUP6 PUSH20 0xFFFFFFFFFFFFFFFFFFFFFFFFFFFFFFFFFFFFFFFF AND PUSH20 0xFFFFFFFFFFFFFFFFFFFFFFFFFFFFFFFFFFFFFFFF AND DUP2 MSTORE PUSH1 0x20 ADD SWAP1 DUP2 MSTORE PUSH1 0x20 ADD PUSH0 KECCAK256 PUSH0 DUP3 DUP3 SLOAD PUSH2 0x337 SWAP2 SWAP1 PUSH2 0xE46 JUMP JUMPDEST SWAP3 POP POP DUP2 SWAP1 SSTORE POP DUP3 PUSH20 0xFFFFFFFFFFFFFFFFFFFFFFFFFFFFFFFFFFFFFFFF AND CALLER PUSH20 0xFFFFFFFFFFFFFFFFFFFFFFFFFFFFFFFFFFFFFFFF AND PUSH32 0x8C5BE1E5EBEC7D5BD14F71427D1E84F3DD0314C0F7B2291E5B200AC8C7C3B925 PUSH1 0x4 PUSH0 CALLER PUSH20 0xFFFFFFFFFFFFFFFFFFFFFFFFFFFFFFFFFFFFFFFF AND PUSH20 0xFFFFFFFFFFFFFFFFFFFFFFFFFFFFFFFFFFFFFFFF AND DUP2 MSTORE PUSH1 0x20 ADD SWAP1 DUP2 MSTORE PUSH1 0x20 ADD PUSH0 KECCAK256 PUSH0 DUP8 PUSH20 0xFFFFFFFFFFFFFFFFFFFFFFFFFFFFFFFFFFFFFFFF AND PUSH20 0xFFFFFFFFFFFFFFFFFFFFFFFFFFFFFFFFFFFFFFFF AND DUP2 MSTORE PUSH1 0x20 ADD SWAP1 DUP2 MSTORE PUSH1 0x20 ADD PUSH0 KECCAK256 SLOAD PUSH1 0x40 MLOAD PUSH2 0x413 SWAP2 SWAP1 PUSH2 0xCEB JUMP JUMPDEST PUSH1 0x40 MLOAD DUP1 SWAP2 SUB SWAP1 LOG3 PUSH1 0x1 SWAP1 POP SWAP3 SWAP2 POP POP JUMP JUMPDEST PUSH0 SLOAD DUP2 JUMP JUMPDEST PUSH0 DUP2 PUSH1 0x4 PUSH0 DUP7 PUSH20 0xFFFFFFFFFFFFFFFFFFFFFFFFFFFFFFFFFFFFFFFF AND PUSH20 0xFFFFFFFFFFFFFFFFFFFFFFFFFFFFFFFFFFFFFFFF AND DUP2 MSTORE PUSH1 0x20 ADD SWAP1 DUP2 MSTORE PUSH1 0x20 ADD PUSH0 KECCAK256 PUSH0 CALLER PUSH20 0xFFFFFFFFFFFFFFFFFFFFFFFFFFFFFFFFFFFFFFFF AND PUSH20 0xFFFFFFFFFFFFFFFFFFFFFFFFFFFFFFFFFFFFFFFF AND DUP2 MSTORE PUSH1 0x20 ADD SWAP1 DUP2 MSTORE PUSH1 0x20 ADD PUSH0 KECCAK256 SLOAD LT ISZERO PUSH2 0x4E6 JUMPI PUSH1 0x40 MLOAD PUSH32 0x8C379A000000000000000000000000000000000000000000000000000000000 DUP2 MSTORE PUSH1 0x4 ADD PUSH2 0x4DD SWAP1 PUSH2 0xEC3 JUMP JUMPDEST PUSH1 0x40 MLOAD DUP1 SWAP2 SUB SWAP1 REVERT JUMPDEST DUP2 PUSH1 0x4 PUSH0 DUP7 PUSH20 0xFFFFFFFFFFFFFFFFFFFFFFFFFFFFFFFFFFFFFFFF AND PUSH20 0xFFFFFFFFFFFFFFFFFFFFFFFFFFFFFFFFFFFFFFFF AND DUP2 MSTORE PUSH1 0x20 ADD SWAP1 DUP2 MSTORE PUSH1 0x20 ADD PUSH0 KECCAK256 PUSH0 CALLER PUSH20 0xFFFFFFFFFFFFFFFFFFFFFFFFFFFFFFFFFFFFFFFF AND PUSH20 0xFFFFFFFFFFFFFFFFFFFFFFFFFFFFFFFFFFFFFFFF AND DUP2 MSTORE PUSH1 0x20 ADD SWAP1 DUP2 MSTORE PUSH1 0x20 ADD PUSH0 KECCAK256 PUSH0 DUP3 DUP3 SLOAD PUSH2 0x56D SWAP2 SWAP1 PUSH2 0xEE1 JUMP JUMPDEST SWAP3 POP POP DUP2 SWAP1 SSTORE POP CALLER PUSH20 0xFFFFFFFFFFFFFFFFFFFFFFFFFFFFFFFFFFFFFFFF AND DUP5 PUSH20 0xFFFFFFFFFFFFFFFFFFFFFFFFFFFFFFFFFFFFFFFF AND PUSH32 0x8C5BE1E5EBEC7D5BD14F71427D1E84F3DD0314C0F7B2291E5B200AC8C7C3B925 PUSH1 0x4 PUSH0 DUP9 PUSH20 0xFFFFFFFFFFFFFFFFFFFFFFFFFFFFFFFFFFFFFFFF AND PUSH20 0xFFFFFFFFFFFFFFFFFFFFFFFFFFFFFFFFFFFFFFFF AND DUP2 MSTORE PUSH1 0x20 ADD SWAP1 DUP2 MSTORE PUSH1 0x20 ADD PUSH0 KECCAK256 PUSH0 CALLER PUSH20 0xFFFFFFFFFFFFFFFFFFFFFFFFFFFFFFFFFFFFFFFF AND PUSH20 0xFFFFFFFFFFFFFFFFFFFFFFFFFFFFFFFFFFFFFFFF AND DUP2 MSTORE PUSH1 0x20 ADD SWAP1 DUP2 MSTORE PUSH1 0x20 ADD PUSH0 KECCAK256 SLOAD PUSH1 0x40 MLOAD PUSH2 0x649 SWAP2 SWAP1 PUSH2 0xCEB JUMP JUMPDEST PUSH1 0x40 MLOAD DUP1 SWAP2 SUB SWAP1 LOG3 PUSH2 0x65C DUP5 DUP5 DUP5 PUSH2 0x898 JUMP JUMPDEST SWAP1 POP SWAP4 SWAP3 POP POP POP JUMP JUMPDEST PUSH1 0x12 DUP2 JUMP JUMPDEST PUSH1 0x1 PUSH0 SWAP1 SLOAD SWAP1 PUSH2 0x100 EXP SWAP1 DIV PUSH20 0xFFFFFFFFFFFFFFFFFFFFFFFFFFFFFFFFFFFFFFFF AND PUSH20 0xFFFFFFFFFFFFFFFFFFFFFFFFFFFFFFFFFFFFFFFF AND CALLER PUSH20 0xFFFFFFFFFFFFFFFFFFFFFFFFFFFFFFFFFFFFFFFF AND EQ PUSH2 0x6F9 JUMPI PUSH1 0x40 MLOAD PUSH32 0x8C379A000000000000000000000000000000000000000000000000000000000 DUP2 MSTORE PUSH1 0x4 ADD PUSH2 0x6F0 SWAP1 PUSH2 0xF5E JUMP JUMPDEST PUSH1 0x40 MLOAD DUP1 SWAP2 SUB SWAP1 REVERT JUMPDEST DUP1 PUSH1 0x3 PUSH0 DUP5 PUSH20 0xFFFFFFFFFFFFFFFFFFFFFFFFFFFFFFFFFFFFFFFF AND PUSH20 0xFFFFFFFFFFFFFFFFFFFFFFFFFFFFFFFFFFFFFFFF AND DUP2 MSTORE PUSH1 0x20 ADD SWAP1 DUP2 MSTORE PUSH1 0x20 ADD PUSH0 KECCAK256 PUSH0 DUP3 DUP3 SLOAD PUSH2 0x745 SWAP2 SWAP1 PUSH2 0xE46 JUMP JUMPDEST SWAP3 POP POP DUP2 SWAP1 SSTORE POP DUP1 PUSH0 DUP1 DUP3 DUP3 SLOAD PUSH2 0x75C SWAP2 SWAP1 PUSH2 0xE46 JUMP JUMPDEST SWAP3 POP POP DUP2 SWAP1 SSTORE POP DUP2 PUSH20 0xFFFFFFFFFFFFFFFFFFFFFFFFFFFFFFFFFFFFFFFF AND PUSH0 PUSH20 0xFFFFFFFFFFFFFFFFFFFFFFFFFFFFFFFFFFFFFFFF AND PUSH32 0xDDF252AD1BE2C89B69C2B068FC378DAA952BA7F163C4A11628F55A4DF523B3EF DUP4 PUSH1 0x40 MLOAD PUSH2 0x7C0 SWAP2 SWAP1 PUSH2 0xCEB JUMP JUMPDEST PUSH1 0x40 MLOAD DUP1 SWAP2 SUB SWAP1 LOG3 POP POP JUMP JUMPDEST PUSH1 0x3 PUSH1 0x20 MSTORE DUP1 PUSH0 MSTORE PUSH1 0x40 PUSH0 KECCAK256 PUSH0 SWAP2 POP SWAP1 POP SLOAD DUP2 JUMP JUMPDEST PUSH1 0x1 PUSH0 SWAP1 SLOAD SWAP1 PUSH2 0x100 EXP SWAP1 DIV PUSH20 0xFFFFFFFFFFFFFFFFFFFFFFFFFFFFFFFFFFFFFFFF AND DUP2 JUMP JUMPDEST PUSH1 0x40 MLOAD DUP1 PUSH1 0x40 ADD PUSH1 0x40 MSTORE DUP1 PUSH1 0x3 DUP2 MSTORE PUSH1 0x20 ADD PUSH32 0x4D544E0000000000000000000000000000000000000000000000000000000000 DUP2 MSTORE POP DUP2 JUMP JUMPDEST PUSH0 PUSH2 0x84B CALLER DUP5 DUP5 PUSH2 0x898 JUMP JUMPDEST SWAP1 POP SWAP3 SWAP2 POP POP JUMP JUMPDEST PUSH1 0x2 PUSH0 SWAP1 SLOAD SWAP1 PUSH2 0x100 EXP SWAP1 DIV PUSH20 0xFFFFFFFFFFFFFFFFFFFFFFFFFFFFFFFFFFFFFFFF AND DUP2 JUMP JUMPDEST PUSH1 0x4 PUSH1 0x20 MSTORE DUP2 PUSH0 MSTORE PUSH1 0x40 PUSH0 KECCAK256 PUSH1 0x20 MSTORE DUP1 PUSH0 MSTORE PUSH1 0x40 PUSH0 KECCAK256 PUSH0 SWAP2 POP SWAP2 POP POP SLOAD DUP2 JUMP JUMPDEST PUSH0 DUP2 PUSH1 0x3 PUSH0 DUP7 PUSH20 0xFFFFFFFFFFFFFFFFFFFFFFFFFFFFFFFFFFFFFFFF AND PUSH20 0xFFFFFFFFFFFFFFFFFFFFFFFFFFFFFFFFFFFFFFFF AND DUP2 MSTORE PUSH1 0x20 ADD SWAP1 DUP2 MSTORE PUSH1 0x20 ADD PUSH0 KECCAK256 SLOAD LT ISZERO PUSH2 0x919 JUMPI PUSH1 0x40 MLOAD PUSH32 0x8C379A000000000000000000000000000000000000000000000000000000000 DUP2 MSTORE PUSH1 0x4 ADD PUSH2 0x910 SWAP1 PUSH2 0xFEC JUMP JUMPDEST PUSH1 0x40 MLOAD DUP1 SWAP2 SUB SWAP1 REVERT JUMPDEST PUSH0 PUSH1 0x64 DUP4 PUSH2 0x927 SWAP2 SWAP1 PUSH2 0x1037 JUMP JUMPDEST SWAP1 POP PUSH0 DUP2 DUP5 PUSH2 0x936 SWAP2 SWAP1 PUSH2 0xEE1 JUMP JUMPDEST SWAP1 POP DUP4 PUSH1 0x3 PUSH0 DUP9 PUSH20 0xFFFFFFFFFFFFFFFFFFFFFFFFFFFFFFFFFFFFFFFF AND PUSH20 0xFFFFFFFFFFFFFFFFFFFFFFFFFFFFFFFFFFFFFFFF AND DUP2 MSTORE PUSH1 0x20 ADD SWAP1 DUP2 MSTORE PUSH1 0x20 ADD PUSH0 KECCAK256 PUSH0 DUP3 DUP3 SLOAD PUSH2 0x984 SWAP2 SWAP1 PUSH2 0xEE1 JUMP JUMPDEST SWAP3 POP POP DUP2 SWAP1 SSTORE POP DUP1 PUSH1 0x3 PUSH0 DUP8 PUSH20 0xFFFFFFFFFFFFFFFFFFFFFFFFFFFFFFFFFFFFFFFF AND PUSH20 0xFFFFFFFFFFFFFFFFFFFFFFFFFFFFFFFFFFFFFFFF AND DUP2 MSTORE PUSH1 0x20 ADD SWAP1 DUP2 MSTORE PUSH1 0x20 ADD PUSH0 KECCAK256 PUSH0 DUP3 DUP3 SLOAD PUSH2 0x9D7 SWAP2 SWAP1 PUSH2 0xE46 JUMP JUMPDEST SWAP3 POP POP DUP2 SWAP1 SSTORE POP DUP2 PUSH1 0x3 PUSH0 PUSH1 0x2 PUSH0 SWAP1 SLOAD SWAP1 PUSH2 0x100 EXP SWAP1 DIV PUSH20 0xFFFFFFFFFFFFFFFFFFFFFFFFFFFFFFFFFFFFFFFF AND PUSH20 0xFFFFFFFFFFFFFFFFFFFFFFFFFFFFFFFFFFFFFFFF AND PUSH20 0xFFFFFFFFFFFFFFFFFFFFFFFFFFFFFFFFFFFFFFFF AND DUP2 MSTORE PUSH1 0x20 ADD SWAP1 DUP2 MSTORE PUSH1 0x20 ADD PUSH0 KECCAK256 PUSH0 DUP3 DUP3 SLOAD PUSH2 0xA4B SWAP2 SWAP1 PUSH2 0xE46 JUMP JUMPDEST SWAP3 POP POP DUP2 SWAP1 SSTORE POP DUP5 PUSH20 0xFFFFFFFFFFFFFFFFFFFFFFFFFFFFFFFFFFFFFFFF AND DUP7 PUSH20 0xFFFFFFFFFFFFFFFFFFFFFFFFFFFFFFFFFFFFFFFF AND PUSH32 0xDDF252AD1BE2C89B69C2B068FC378DAA952BA7F163C4A11628F55A4DF523B3EF DUP4 PUSH1 0x40 MLOAD PUSH2 0xAAF SWAP2 SWAP1 PUSH2 0xCEB JUMP JUMPDEST PUSH1 0x40 MLOAD DUP1 SWAP2 SUB SWAP1 LOG3 PUSH1 0x2 PUSH0 SWAP1 SLOAD SWAP1 PUSH2 0x100 EXP SWAP1 DIV PUSH20 0xFFFFFFFFFFFFFFFFFFFFFFFFFFFFFFFFFFFFFFFF AND PUSH20 0xFFFFFFFFFFFFFFFFFFFFFFFFFFFFFFFFFFFFFFFF AND DUP7 PUSH20 0xFFFFFFFFFFFFFFFFFFFFFFFFFFFFFFFFFFFFFFFF AND PUSH32 0xDDF252AD1BE2C89B69C2B068FC378DAA952BA7F163C4A11628F55A4DF523B3EF DUP5 PUSH1 0x40 MLOAD PUSH2 0xB35 SWAP2 SWAP1 PUSH2 0xCEB JUMP JUMPDEST PUSH1 0x40 MLOAD DUP1 SWAP2 SUB SWAP1 LOG3 PUSH1 0x1 SWAP3 POP POP POP SWAP4 SWAP3 POP POP POP JUMP JUMPDEST PUSH0 DUP2 MLOAD SWAP1 POP SWAP2 SWAP1 POP JUMP JUMPDEST PUSH0 DUP3 DUP3 MSTORE PUSH1 0x20 DUP3 ADD SWAP1 POP SWAP3 SWAP2 POP POP JUMP JUMPDEST DUP3 DUP2 DUP4 MCOPY PUSH0 DUP4 DUP4 ADD MSTORE POP POP POP JUMP JUMPDEST PUSH0 PUSH1 0x1F NOT PUSH1 0x1F DUP4 ADD AND SWAP1 POP SWAP2 SWAP1 POP JUMP JUMPDEST PUSH0 PUSH2 0xB8C DUP3 PUSH2 0xB4A JUMP JUMPDEST PUSH2 0xB96 DUP2 DUP6 PUSH2 0xB54 JUMP JUMPDEST SWAP4 POP PUSH2 0xBA6 DUP2 DUP6 PUSH1 0x20 DUP7 ADD PUSH2 0xB64 JUMP JUMPDEST PUSH2 0xBAF DUP2 PUSH2 0xB72 JUMP JUMPDEST DUP5 ADD SWAP2 POP POP SWAP3 SWAP2 POP POP JUMP JUMPDEST PUSH0 PUSH1 0x20 DUP3 ADD SWAP1 POP DUP2 DUP2 SUB PUSH0 DUP4 ADD MSTORE PUSH2 0xBD2 DUP2 DUP5 PUSH2 0xB82 JUMP JUMPDEST SWAP1 POP SWAP3 SWAP2 POP POP JUMP JUMPDEST PUSH0 DUP1 REVERT JUMPDEST PUSH0 PUSH20 0xFFFFFFFFFFFFFFFFFFFFFFFFFFFFFFFFFFFFFFFF DUP3 AND SWAP1 POP SWAP2 SWAP1 POP JUMP JUMPDEST PUSH0 PUSH2 0xC07 DUP3 PUSH2 0xBDE JUMP JUMPDEST SWAP1 POP SWAP2 SWAP1 POP JUMP JUMPDEST PUSH2 0xC17 DUP2 PUSH2 0xBFD JUMP JUMPDEST DUP2 EQ PUSH2 0xC21 JUMPI PUSH0 DUP1 REVERT JUMPDEST POP JUMP JUMPDEST PUSH0 DUP2 CALLDATALOAD SWAP1 POP PUSH2 0xC32 DUP2 PUSH2 0xC0E JUMP JUMPDEST SWAP3 SWAP2 POP POP JUMP JUMPDEST PUSH0 DUP2 SWAP1 POP SWAP2 SWAP1 POP JUMP JUMPDEST PUSH2 0xC4A DUP2 PUSH2 0xC38 JUMP JUMPDEST DUP2 EQ PUSH2 0xC54 JUMPI PUSH0 DUP1 REVERT JUMPDEST POP JUMP JUMPDEST PUSH0 DUP2 CALLDATALOAD SWAP1 POP PUSH2 0xC65 DUP2 PUSH2 0xC41 JUMP JUMPDEST SWAP3 SWAP2 POP POP JUMP JUMPDEST PUSH0 DUP1 PUSH1 0x40 DUP4 DUP6 SUB SLT ISZERO PUSH2 0xC81 JUMPI PUSH2 0xC80 PUSH2 0xBDA JUMP JUMPDEST JUMPDEST PUSH0 PUSH2 0xC8E DUP6 DUP3 DUP7 ADD PUSH2 0xC24 JUMP JUMPDEST SWAP3 POP POP PUSH1 0x20 PUSH2 0xC9F DUP6 DUP3 DUP7 ADD PUSH2 0xC57 JUMP JUMPDEST SWAP2 POP POP SWAP3 POP SWAP3 SWAP1 POP JUMP JUMPDEST PUSH0 DUP2 ISZERO ISZERO SWAP1 POP SWAP2 SWAP1 POP JUMP JUMPDEST PUSH2 0xCBD DUP2 PUSH2 0xCA9 JUMP JUMPDEST DUP3 MSTORE POP POP JUMP JUMPDEST PUSH0 PUSH1 0x20 DUP3 ADD SWAP1 POP PUSH2 0xCD6 PUSH0 DUP4 ADD DUP5 PUSH2 0xCB4 JUMP JUMPDEST SWAP3 SWAP2 POP POP JUMP JUMPDEST PUSH2 0xCE5 DUP2 PUSH2 0xC38 JUMP JUMPDEST DUP3 MSTORE POP POP JUMP JUMPDEST PUSH0 PUSH1 0x20 DUP3 ADD SWAP1 POP PUSH2 0xCFE PUSH0 DUP4 ADD DUP5 PUSH2 0xCDC JUMP JUMPDEST SWAP3 SWAP2 POP POP JUMP JUMPDEST PUSH0 DUP1 PUSH0 PUSH1 0x60 DUP5 DUP7 SUB SLT ISZERO PUSH2 0xD1B JUMPI PUSH2 0xD1A PUSH2 0xBDA JUMP JUMPDEST JUMPDEST PUSH0 PUSH2 0xD28 DUP7 DUP3 DUP8 ADD PUSH2 0xC24 JUMP JUMPDEST SWAP4 POP POP PUSH1 0x20 PUSH2 0xD39 DUP7 DUP3 DUP8 ADD PUSH2 0xC24 JUMP JUMPDEST SWAP3 POP POP PUSH1 0x40 PUSH2 0xD4A DUP7 DUP3 DUP8 ADD PUSH2 0xC57 JUMP JUMPDEST SWAP2 POP POP SWAP3 POP SWAP3 POP SWAP3 JUMP JUMPDEST PUSH0 PUSH1 0xFF DUP3 AND SWAP1 POP SWAP2 SWAP1 POP JUMP JUMPDEST PUSH2 0xD69 DUP2 PUSH2 0xD54 JUMP JUMPDEST DUP3 MSTORE POP POP JUMP JUMPDEST PUSH0 PUSH1 0x20 DUP3 ADD SWAP1 POP PUSH2 0xD82 PUSH0 DUP4 ADD DUP5 PUSH2 0xD60 JUMP JUMPDEST SWAP3 SWAP2 POP POP JUMP JUMPDEST PUSH0 PUSH1 0x20 DUP3 DUP5 SUB SLT ISZERO PUSH2 0xD9D JUMPI PUSH2 0xD9C PUSH2 0xBDA JUMP JUMPDEST JUMPDEST PUSH0 PUSH2 0xDAA DUP5 DUP3 DUP6 ADD PUSH2 0xC24 JUMP JUMPDEST SWAP2 POP POP SWAP3 SWAP2 POP POP JUMP JUMPDEST PUSH2 0xDBC DUP2 PUSH2 0xBFD JUMP JUMPDEST DUP3 MSTORE POP POP JUMP JUMPDEST PUSH0 PUSH1 0x20 DUP3 ADD SWAP1 POP PUSH2 0xDD5 PUSH0 DUP4 ADD DUP5 PUSH2 0xDB3 JUMP JUMPDEST SWAP3 SWAP2 POP POP JUMP JUMPDEST PUSH0 DUP1 PUSH1 0x40 DUP4 DUP6 SUB SLT ISZERO PUSH2 0xDF1 JUMPI PUSH2 0xDF0 PUSH2 0xBDA JUMP JUMPDEST JUMPDEST PUSH0 PUSH2 0xDFE DUP6 DUP3 DUP7 ADD PUSH2 0xC24 JUMP JUMPDEST SWAP3 POP POP PUSH1 0x20 PUSH2 0xE0F DUP6 DUP3 DUP7 ADD PUSH2 0xC24 JUMP JUMPDEST SWAP2 POP POP SWAP3 POP SWAP3 SWAP1 POP JUMP JUMPDEST PUSH32 0x4E487B7100000000000000000000000000000000000000000000000000000000 PUSH0 MSTORE PUSH1 0x11 PUSH1 0x4 MSTORE PUSH1 0x24 PUSH0 REVERT JUMPDEST PUSH0 PUSH2 0xE50 DUP3 PUSH2 0xC38 JUMP JUMPDEST SWAP2 POP PUSH2 0xE5B DUP4 PUSH2 0xC38 JUMP JUMPDEST SWAP3 POP DUP3 DUP3 ADD SWAP1 POP DUP1 DUP3 GT ISZERO PUSH2 0xE73 JUMPI PUSH2 0xE72 PUSH2 0xE19 JUMP JUMPDEST JUMPDEST SWAP3 SWAP2 POP POP JUMP JUMPDEST PUSH32 0x45524332303A20496E73756666696369656E7420416C6C6F77616E6365000000 PUSH0 DUP3 ADD MSTORE POP JUMP JUMPDEST PUSH0 PUSH2 0xEAD PUSH1 0x1D DUP4 PUSH2 0xB54 JUMP JUMPDEST SWAP2 POP PUSH2 0xEB8 DUP3 PUSH2 0xE79 JUMP JUMPDEST PUSH1 0x20 DUP3 ADD SWAP1 POP SWAP2 SWAP1 POP JUMP JUMPDEST PUSH0 PUSH1 0x20 DUP3 ADD SWAP1 POP DUP2 DUP2 SUB PUSH0 DUP4 ADD MSTORE PUSH2 0xEDA DUP2 PUSH2 0xEA1 JUMP JUMPDEST SWAP1 POP SWAP2 SWAP1 POP JUMP JUMPDEST PUSH0 PUSH2 0xEEB DUP3 PUSH2 0xC38 JUMP JUMPDEST SWAP2 POP PUSH2 0xEF6 DUP4 PUSH2 0xC38 JUMP JUMPDEST SWAP3 POP DUP3 DUP3 SUB SWAP1 POP DUP2 DUP2 GT ISZERO PUSH2 0xF0E JUMPI PUSH2 0xF0D PUSH2 0xE19 JUMP JUMPDEST JUMPDEST SWAP3 SWAP2 POP POP JUMP JUMPDEST PUSH32 0x4E6F7420746865206F776E657200000000000000000000000000000000000000 PUSH0 DUP3 ADD MSTORE POP JUMP JUMPDEST PUSH0 PUSH2 0xF48 PUSH1 0xD DUP4 PUSH2 0xB54 JUMP JUMPDEST SWAP2 POP PUSH2 0xF53 DUP3 PUSH2 0xF14 JUMP JUMPDEST PUSH1 0x20 DUP3 ADD SWAP1 POP SWAP2 SWAP1 POP JUMP JUMPDEST PUSH0 PUSH1 0x20 DUP3 ADD SWAP1 POP DUP2 DUP2 SUB PUSH0 DUP4 ADD MSTORE PUSH2 0xF75 DUP2 PUSH2 0xF3C JUMP JUMPDEST SWAP1 POP SWAP2 SWAP1 POP JUMP JUMPDEST PUSH32 0x45524332303A20496E73756666696369656E742073656E6465722062616C616E PUSH0 DUP3 ADD MSTORE PUSH32 0x6365000000000000000000000000000000000000000000000000000000000000 PUSH1 0x20 DUP3 ADD MSTORE POP JUMP JUMPDEST PUSH0 PUSH2 0xFD6 PUSH1 0x22 DUP4 PUSH2 0xB54 JUMP JUMPDEST SWAP2 POP PUSH2 0xFE1 DUP3 PUSH2 0xF7C JUMP JUMPDEST PUSH1 0x40 DUP3 ADD SWAP1 POP SWAP2 SWAP1 POP JUMP JUMPDEST PUSH0 PUSH1 0x20 DUP3 ADD SWAP1 POP DUP2 DUP2 SUB PUSH0 DUP4 ADD MSTORE PUSH2 0x1003 DUP2 PUSH2 0xFCA JUMP JUMPDEST SWAP1 POP SWAP2 SWAP1 POP JUMP JUMPDEST PUSH32 0x4E487B7100000000000000000000000000000000000000000000000000000000 PUSH0 MSTORE PUSH1 0x12 PUSH1 0x4 MSTORE PUSH1 0x24 PUSH0 REVERT JUMPDEST PUSH0 PUSH2 0x1041 DUP3 PUSH2 0xC38 JUMP JUMPDEST SWAP2 POP PUSH2 0x104C DUP4 PUSH2 0xC38 JUMP JUMPDEST SWAP3 POP DUP3 PUSH2 0x105C JUMPI PUSH2 0x105B PUSH2 0x100A JUMP JUMPDEST JUMPDEST DUP3 DUP3 DIV SWAP1 POP SWAP3 SWAP2 POP POP JUMP INVALID LOG2 PUSH5 0x6970667358 0x22 SLT KECCAK256 DUP16 0xC2 0xD3 0xD1 LOG1 MCOPY SAR 0xB3 CREATE2 0xC5 0xE0 PUSH31 0xA58275B3DD349378E4980B28119CE6787EE3C3DF64736F6C634300081A0033 "
				},
				"gasEstimates": {
					"creation": {
						"codeDepositCost": "850600",
						"executionCost": "49412",
						"totalCost": "900012"
					},
					"external": {
						"allowance(address,address)": "infinite",
						"approve(address,uint256)": "infinite",
						"balanceOf(address)": "2802",
						"decimals()": "420",
						"feeCollector()": "2596",
						"mint(address,uint256)": "infinite",
						"name()": "infinite",
						"owner()": "2530",
						"symbol()": "infinite",
						"totalSupply()": "2469",
						"transfer(address,uint256)": "infinite",
						"transferFrom(address,address,uint256)": "infinite"
					},
					"internal": {
						"_transfer(address,address,uint256)": "infinite"
					}
				},
				"methodIdentifiers": {
					"allowance(address,address)": "dd62ed3e",
					"approve(address,uint256)": "095ea7b3",
					"balanceOf(address)": "70a08231",
					"decimals()": "313ce567",
					"feeCollector()": "c415b95c",
					"mint(address,uint256)": "40c10f19",
					"name()": "06fdde03",
					"owner()": "8da5cb5b",
					"symbol()": "95d89b41",
					"totalSupply()": "18160ddd",
					"transfer(address,uint256)": "a9059cbb",
					"transferFrom(address,address,uint256)": "23b872dd"
				}
			},
			"storageLayout": {
				"storage": [
					{
						"astId": 28,
						"contract": "ERC20 Contract - 1% Transaction Fee.sol:ERC20",
						"label": "totalSupply",
						"offset": 0,
						"slot": "0",
						"type": "t_uint256"
					},
					{
						"astId": 30,
						"contract": "ERC20 Contract - 1% Transaction Fee.sol:ERC20",
						"label": "owner",
						"offset": 0,
						"slot": "1",
						"type": "t_address"
					},
					{
						"astId": 33,
						"contract": "ERC20 Contract - 1% Transaction Fee.sol:ERC20",
						"label": "feeCollector",
						"offset": 0,
						"slot": "2",
						"type": "t_address"
					},
					{
						"astId": 37,
						"contract": "ERC20 Contract - 1% Transaction Fee.sol:ERC20",
						"label": "balanceOf",
						"offset": 0,
						"slot": "3",
						"type": "t_mapping(t_address,t_uint256)"
					},
					{
						"astId": 43,
						"contract": "ERC20 Contract - 1% Transaction Fee.sol:ERC20",
						"label": "allowance",
						"offset": 0,
						"slot": "4",
						"type": "t_mapping(t_address,t_mapping(t_address,t_uint256))"
					}
				],
				"types": {
					"t_address": {
						"encoding": "inplace",
						"label": "address",
						"numberOfBytes": "20"
					},
					"t_mapping(t_address,t_mapping(t_address,t_uint256))": {
						"encoding": "mapping",
						"key": "t_address",
						"label": "mapping(address => mapping(address => uint256))",
						"numberOfBytes": "32",
						"value": "t_mapping(t_address,t_uint256)"
					},
					"t_mapping(t_address,t_uint256)": {
						"encoding": "mapping",
						"key": "t_address",
						"label": "mapping(address => uint256)",
						"numberOfBytes": "32",
						"value": "t_uint256"
					},
					"t_uint256": {
						"encoding": "inplace",
						"label": "uint256",
						"numberOfBytes": "32"
					}
				}
			},
			"userdoc": {
				"kind": "user",
				"methods": {},
				"version": 1
			}
		}
	}
}